{
  "_format": "hh-sol-artifact-1",
  "contractName": "EthLatLong",
  "sourceName": "contracts/EthLatLong.sol",
  "abi": [
    {
      "anonymous": false,
      "inputs": [
        {
          "indexed": false,
          "internalType": "string",
          "name": "name",
          "type": "string"
        },
        {
          "indexed": false,
          "internalType": "string",
          "name": "description",
          "type": "string"
        }
      ],
      "name": "LayerAdded",
      "type": "event"
    },
    {
      "inputs": [
        {
          "internalType": "string",
          "name": "name",
          "type": "string"
        },
        {
          "internalType": "string",
          "name": "description",
          "type": "string"
        },
        {
          "internalType": "SD59x18",
          "name": "lat",
          "type": "int256"
        },
        {
          "internalType": "SD59x18",
          "name": "long",
          "type": "int256"
        },
        {
          "internalType": "uint24",
          "name": "color",
          "type": "uint24"
        }
      ],
      "name": "addLayer",
      "outputs": [],
      "stateMutability": "nonpayable",
      "type": "function"
    },
    {
      "inputs": [
        {
          "internalType": "address",
          "name": "erc721Address",
          "type": "address"
        },
        {
          "internalType": "uint256",
          "name": "tokenId",
          "type": "uint256"
        },
        {
          "internalType": "SD59x18",
          "name": "lat",
          "type": "int256"
        },
        {
          "internalType": "SD59x18",
          "name": "long",
          "type": "int256"
        },
        {
          "internalType": "string",
          "name": "layerName",
          "type": "string"
        },
        {
          "internalType": "string",
          "name": "description",
          "type": "string"
        }
      ],
      "name": "addMedia",
      "outputs": [],
      "stateMutability": "nonpayable",
      "type": "function"
    },
    {
      "inputs": [
        {
          "internalType": "string",
          "name": "layerName",
          "type": "string"
        },
        {
          "internalType": "SD59x18",
          "name": "lat",
          "type": "int256"
        },
        {
          "internalType": "SD59x18",
          "name": "long",
          "type": "int256"
        },
        {
          "internalType": "string",
          "name": "message",
          "type": "string"
        }
      ],
      "name": "addMessage",
      "outputs": [],
      "stateMutability": "nonpayable",
      "type": "function"
    },
    {
      "inputs": [],
      "name": "getAllEmbeds",
      "outputs": [
        {
          "components": [
            {
              "internalType": "uint256",
              "name": "id",
              "type": "uint256"
            },
            {
              "internalType": "enum EthLatLong.Kinds",
              "name": "kind",
              "type": "uint8"
            },
            {
              "internalType": "string",
              "name": "message",
              "type": "string"
            },
            {
              "internalType": "SD59x18",
              "name": "lat",
              "type": "int256"
            },
            {
              "internalType": "SD59x18",
              "name": "long",
              "type": "int256"
            },
            {
              "internalType": "address",
              "name": "author",
              "type": "address"
            },
            {
              "internalType": "string",
              "name": "url",
              "type": "string"
            },
            {
              "internalType": "string",
              "name": "description",
              "type": "string"
            }
          ],
          "internalType": "struct EthLatLong.Embed[]",
          "name": "",
          "type": "tuple[]"
        }
      ],
      "stateMutability": "view",
      "type": "function"
    },
    {
      "inputs": [],
      "name": "getAllLayers",
      "outputs": [
        {
          "components": [
            {
              "internalType": "uint256",
              "name": "id",
              "type": "uint256"
            },
            {
              "internalType": "string",
              "name": "name",
              "type": "string"
            },
            {
              "internalType": "string",
              "name": "description",
              "type": "string"
            },
            {
              "internalType": "uint256",
              "name": "embedN",
              "type": "uint256"
            },
            {
              "components": [
                {
                  "internalType": "uint256",
                  "name": "id",
                  "type": "uint256"
                },
                {
                  "internalType": "enum EthLatLong.Kinds",
                  "name": "kind",
                  "type": "uint8"
                },
                {
                  "internalType": "string",
                  "name": "message",
                  "type": "string"
                },
                {
                  "internalType": "SD59x18",
                  "name": "lat",
                  "type": "int256"
                },
                {
                  "internalType": "SD59x18",
                  "name": "long",
                  "type": "int256"
                },
                {
                  "internalType": "address",
                  "name": "author",
                  "type": "address"
                },
                {
                  "internalType": "string",
                  "name": "url",
                  "type": "string"
                },
                {
                  "internalType": "string",
                  "name": "description",
                  "type": "string"
                }
              ],
              "internalType": "struct EthLatLong.Embed[]",
              "name": "embeds",
              "type": "tuple[]"
            },
            {
              "internalType": "SD59x18",
              "name": "lat",
              "type": "int256"
            },
            {
              "internalType": "SD59x18",
              "name": "long",
              "type": "int256"
            },
            {
              "internalType": "address",
              "name": "author",
              "type": "address"
            },
            {
              "internalType": "uint24",
              "name": "color",
              "type": "uint24"
            }
          ],
          "internalType": "struct EthLatLong.Layer[]",
          "name": "",
          "type": "tuple[]"
        }
      ],
      "stateMutability": "view",
      "type": "function"
    },
    {
      "inputs": [
        {
          "internalType": "string",
          "name": "layerName",
          "type": "string"
        }
      ],
      "name": "getEmbeds",
      "outputs": [
        {
          "components": [
            {
              "internalType": "uint256",
              "name": "id",
              "type": "uint256"
            },
            {
              "internalType": "enum EthLatLong.Kinds",
              "name": "kind",
              "type": "uint8"
            },
            {
              "internalType": "string",
              "name": "message",
              "type": "string"
            },
            {
              "internalType": "SD59x18",
              "name": "lat",
              "type": "int256"
            },
            {
              "internalType": "SD59x18",
              "name": "long",
              "type": "int256"
            },
            {
              "internalType": "address",
              "name": "author",
              "type": "address"
            },
            {
              "internalType": "string",
              "name": "url",
              "type": "string"
            },
            {
              "internalType": "string",
              "name": "description",
              "type": "string"
            }
          ],
          "internalType": "struct EthLatLong.Embed[]",
          "name": "embeds",
          "type": "tuple[]"
        }
      ],
      "stateMutability": "view",
      "type": "function"
    },
    {
      "inputs": [
        {
          "internalType": "string",
          "name": "name",
          "type": "string"
        }
      ],
      "name": "getLayer",
      "outputs": [
        {
          "components": [
            {
              "internalType": "uint256",
              "name": "id",
              "type": "uint256"
            },
            {
              "internalType": "string",
              "name": "name",
              "type": "string"
            },
            {
              "internalType": "string",
              "name": "description",
              "type": "string"
            },
            {
              "internalType": "uint256",
              "name": "embedN",
              "type": "uint256"
            },
            {
              "components": [
                {
                  "internalType": "uint256",
                  "name": "id",
                  "type": "uint256"
                },
                {
                  "internalType": "enum EthLatLong.Kinds",
                  "name": "kind",
                  "type": "uint8"
                },
                {
                  "internalType": "string",
                  "name": "message",
                  "type": "string"
                },
                {
                  "internalType": "SD59x18",
                  "name": "lat",
                  "type": "int256"
                },
                {
                  "internalType": "SD59x18",
                  "name": "long",
                  "type": "int256"
                },
                {
                  "internalType": "address",
                  "name": "author",
                  "type": "address"
                },
                {
                  "internalType": "string",
                  "name": "url",
                  "type": "string"
                },
                {
                  "internalType": "string",
                  "name": "description",
                  "type": "string"
                }
              ],
              "internalType": "struct EthLatLong.Embed[]",
              "name": "embeds",
              "type": "tuple[]"
            },
            {
              "internalType": "SD59x18",
              "name": "lat",
              "type": "int256"
            },
            {
              "internalType": "SD59x18",
              "name": "long",
              "type": "int256"
            },
            {
              "internalType": "address",
              "name": "author",
              "type": "address"
            },
            {
              "internalType": "uint24",
              "name": "color",
              "type": "uint24"
            }
          ],
          "internalType": "struct EthLatLong.Layer",
          "name": "",
          "type": "tuple"
        }
      ],
      "stateMutability": "view",
      "type": "function"
    },
    {
      "inputs": [
        {
          "internalType": "uint256",
          "name": "",
          "type": "uint256"
        }
      ],
      "name": "layerNames",
      "outputs": [
        {
          "internalType": "string",
          "name": "",
          "type": "string"
        }
      ],
      "stateMutability": "view",
      "type": "function"
    },
    {
      "inputs": [
        {
          "internalType": "string",
          "name": "layerName",
          "type": "string"
        },
        {
          "internalType": "uint256",
          "name": "id",
          "type": "uint256"
        }
      ],
      "name": "removeMessage",
      "outputs": [],
      "stateMutability": "nonpayable",
      "type": "function"
    }
  ],
  "bytecode": "0x608060405234801561001057600080fd5b50614a07806100206000396000f3fe608060405234801561001057600080fd5b50600436106100935760003560e01c806347f9cf6f1161006657806347f9cf6f1461011e57806362415a191461013c5780637d3790061461016c57806382cb3c23146101885780639c318e67146101a457610093565b806319a93b88146100985780632b6f2a0b146100b6578063358019ba146100d257806344f25dee14610102575b600080fd5b6100a06101d4565b6040516100ad91906135d8565b60405180910390f35b6100d060048036038101906100cb91906136cb565b6107d6565b005b6100ec60048036038101906100e79190613787565b610b10565b6040516100f9919061385a565b60405180910390f35b61011c6004803603810190610117919061387c565b611032565b005b6101266118b1565b604051610133919061385a565b60405180910390f35b6101566004803603810190610151919061394f565b611a1f565b60405161016391906139c6565b60405180910390f35b610186600480360381019061018191906139e8565b611acb565b005b6101a2600480360381019061019d9190613a74565b611fe7565b005b6101be60048036038101906101b99190613c73565b612a61565b6040516101cb9190613d8f565b60405180910390f35b6060600060018054905067ffffffffffffffff8111156101f7576101f6613b48565b5b60405190808252806020026020018201604052801561023057816020015b61021d612fce565b8152602001906001900390816102155790505b50905060005b6001805490508110156107ce5760006001828154811061025957610258613db1565b5b90600052602060002001805461026e90613e0f565b80601f016020809104026020016040519081016040528092919081815260200182805461029a90613e0f565b80156102e75780601f106102bc576101008083540402835291602001916102e7565b820191906000526020600020905b8154815290600101906020018083116102ca57829003601f168201915b505050505090506002816040516102fe9190613e7c565b9081526020016040518091039020604051806101200160405290816000820154815260200160018201805461033290613e0f565b80601f016020809104026020016040519081016040528092919081815260200182805461035e90613e0f565b80156103ab5780601f10610380576101008083540402835291602001916103ab565b820191906000526020600020905b81548152906001019060200180831161038e57829003601f168201915b505050505081526020016002820180546103c490613e0f565b80601f01602080910402602001604051908101604052809291908181526020018280546103f090613e0f565b801561043d5780601f106104125761010080835404028352916020019161043d565b820191906000526020600020905b81548152906001019060200180831161042057829003601f168201915b505050505081526020016003820154815260200160048201805480602002602001604051908101604052809291908181526020016000905b8282101561070d578382906000526020600020906008020160405180610100016040529081600082015481526020016001820160009054906101000a900460ff1660028111156104c8576104c7613200565b5b60028111156104da576104d9613200565b5b81526020016002820180546104ee90613e0f565b80601f016020809104026020016040519081016040528092919081815260200182805461051a90613e0f565b80156105675780601f1061053c57610100808354040283529160200191610567565b820191906000526020600020905b81548152906001019060200180831161054a57829003601f168201915b5050505050815260200160038201548152602001600482015481526020016005820160009054906101000a900473ffffffffffffffffffffffffffffffffffffffff1673ffffffffffffffffffffffffffffffffffffffff1673ffffffffffffffffffffffffffffffffffffffff1681526020016006820180546105ea90613e0f565b80601f016020809104026020016040519081016040528092919081815260200182805461061690613e0f565b80156106635780601f1061063857610100808354040283529160200191610663565b820191906000526020600020905b81548152906001019060200180831161064657829003601f168201915b5050505050815260200160078201805461067c90613e0f565b80601f01602080910402602001604051908101604052809291908181526020018280546106a890613e0f565b80156106f55780601f106106ca576101008083540402835291602001916106f5565b820191906000526020600020905b8154815290600101906020018083116106d857829003601f168201915b50505050508152505081526020019060010190610475565b50505050815260200160058201548152602001600682015481526020016007820160009054906101000a900473ffffffffffffffffffffffffffffffffffffffff1673ffffffffffffffffffffffffffffffffffffffff1673ffffffffffffffffffffffffffffffffffffffff1681526020016007820160149054906101000a900462ffffff1662ffffff1662ffffff16815250508383815181106107b5576107b4613db1565b5b6020026020010181905250508080600101915050610236565b508091505090565b82826108136108047ffffffffffffffffffffffffffffffffffffffffffffffffb1effc4d726d80000612f80565b83612f8a90919063ffffffff16565b801561083f575061083e61082f6804e1003b28d9280000612f80565b83612fa790919063ffffffff16565b5b801561088257506108816108727ffffffffffffffffffffffffffffffffffffffffffffffff63dff89ae4db00000612f80565b82612f8a90919063ffffffff16565b5b80156108ae57506108ad61089e6809c2007651b2500000612f80565b82612fa790919063ffffffff16565b5b6108ed576040517f08c379a00000000000000000000000000000000000000000000000000000000081526004016108e490613edf565b60405180910390fd5b600060028a8a604051610901929190613f24565b9081526020016040518091039020600101805461091d90613e0f565b90501461095f576040517f08c379a000000000000000000000000000000000000000000000000000000000815260040161095690613f89565b60405180910390fd5b600089899050116109a5576040517f08c379a000000000000000000000000000000000000000000000000000000000815260040161099c90613ff5565b60405180910390fd5b600060028a8a6040516109b9929190613f24565b9081526020016040518091039020905089898260010191826109dc9291906141c2565b5087878260020191826109f09291906141c2565b50858160050181905550848160060181905550338160070160006101000a81548173ffffffffffffffffffffffffffffffffffffffff021916908373ffffffffffffffffffffffffffffffffffffffff160217905550838160070160146101000a81548162ffffff021916908362ffffff160217905550600054816000018190555060018a8a90918060018154018082558091505060019003906000526020600020016000909192909192909192909192509182610aaf9291906141c2565b50600080815480929190610ac2906142c1565b91905055507f7b0948d5de2c2c0cfb37744557d07b8ca6ccb7aa1c0ed394278d39c8aed9e9978a8a8a8a604051610afc9493929190614336565b60405180910390a150505050505050505050565b606060008383905011610b58576040517f08c379a0000000000000000000000000000000000000000000000000000000008152600401610b4f90613ff5565b60405180910390fd5b600060028484604051610b6c929190613f24565b90815260200160405180910390206040518061012001604052908160008201548152602001600182018054610ba090613e0f565b80601f0160208091040260200160405190810160405280929190818152602001828054610bcc90613e0f565b8015610c195780601f10610bee57610100808354040283529160200191610c19565b820191906000526020600020905b815481529060010190602001808311610bfc57829003601f168201915b50505050508152602001600282018054610c3290613e0f565b80601f0160208091040260200160405190810160405280929190818152602001828054610c5e90613e0f565b8015610cab5780601f10610c8057610100808354040283529160200191610cab565b820191906000526020600020905b815481529060010190602001808311610c8e57829003601f168201915b505050505081526020016003820154815260200160048201805480602002602001604051908101604052809291908181526020016000905b82821015610f7b578382906000526020600020906008020160405180610100016040529081600082015481526020016001820160009054906101000a900460ff166002811115610d3657610d35613200565b5b6002811115610d4857610d47613200565b5b8152602001600282018054610d5c90613e0f565b80601f0160208091040260200160405190810160405280929190818152602001828054610d8890613e0f565b8015610dd55780601f10610daa57610100808354040283529160200191610dd5565b820191906000526020600020905b815481529060010190602001808311610db857829003601f168201915b5050505050815260200160038201548152602001600482015481526020016005820160009054906101000a900473ffffffffffffffffffffffffffffffffffffffff1673ffffffffffffffffffffffffffffffffffffffff1673ffffffffffffffffffffffffffffffffffffffff168152602001600682018054610e5890613e0f565b80601f0160208091040260200160405190810160405280929190818152602001828054610e8490613e0f565b8015610ed15780601f10610ea657610100808354040283529160200191610ed1565b820191906000526020600020905b815481529060010190602001808311610eb457829003601f168201915b50505050508152602001600782018054610eea90613e0f565b80601f0160208091040260200160405190810160405280929190818152602001828054610f1690613e0f565b8015610f635780601f10610f3857610100808354040283529160200191610f63565b820191906000526020600020905b815481529060010190602001808311610f4657829003601f168201915b50505050508152505081526020019060010190610ce3565b50505050815260200160058201548152602001600682015481526020016007820160009054906101000a900473ffffffffffffffffffffffffffffffffffffffff1673ffffffffffffffffffffffffffffffffffffffff1673ffffffffffffffffffffffffffffffffffffffff1681526020016007820160149054906101000a900462ffffff1662ffffff1662ffffff1681525050905060008160200151510361102457600080fd5b806080015191505092915050565b838361106f6110607ffffffffffffffffffffffffffffffffffffffffffffffffb1effc4d726d80000612f80565b83612f8a90919063ffffffff16565b801561109b575061109a61108b6804e1003b28d9280000612f80565b83612fa790919063ffffffff16565b5b80156110de57506110dd6110ce7ffffffffffffffffffffffffffffffffffffffffffffffff63dff89ae4db00000612f80565b82612f8a90919063ffffffff16565b5b801561110a57506111096110fa6809c2007651b2500000612f80565b82612fa790919063ffffffff16565b5b611149576040517f08c379a000000000000000000000000000000000000000000000000000000000815260040161114090613edf565b60405180910390fd5b6000888890501161118f576040517f08c379a000000000000000000000000000000000000000000000000000000000815260040161118690613ff5565b60405180910390fd5b6000600289896040516111a3929190613f24565b908152602001604051809103902060405180610120016040529081600082015481526020016001820180546111d790613e0f565b80601f016020809104026020016040519081016040528092919081815260200182805461120390613e0f565b80156112505780601f1061122557610100808354040283529160200191611250565b820191906000526020600020905b81548152906001019060200180831161123357829003601f168201915b5050505050815260200160028201805461126990613e0f565b80601f016020809104026020016040519081016040528092919081815260200182805461129590613e0f565b80156112e25780601f106112b7576101008083540402835291602001916112e2565b820191906000526020600020905b8154815290600101906020018083116112c557829003601f168201915b505050505081526020016003820154815260200160048201805480602002602001604051908101604052809291908181526020016000905b828210156115b2578382906000526020600020906008020160405180610100016040529081600082015481526020016001820160009054906101000a900460ff16600281111561136d5761136c613200565b5b600281111561137f5761137e613200565b5b815260200160028201805461139390613e0f565b80601f01602080910402602001604051908101604052809291908181526020018280546113bf90613e0f565b801561140c5780601f106113e15761010080835404028352916020019161140c565b820191906000526020600020905b8154815290600101906020018083116113ef57829003601f168201915b5050505050815260200160038201548152602001600482015481526020016005820160009054906101000a900473ffffffffffffffffffffffffffffffffffffffff1673ffffffffffffffffffffffffffffffffffffffff1673ffffffffffffffffffffffffffffffffffffffff16815260200160068201805461148f90613e0f565b80601f01602080910402602001604051908101604052809291908181526020018280546114bb90613e0f565b80156115085780601f106114dd57610100808354040283529160200191611508565b820191906000526020600020905b8154815290600101906020018083116114eb57829003601f168201915b5050505050815260200160078201805461152190613e0f565b80601f016020809104026020016040519081016040528092919081815260200182805461154d90613e0f565b801561159a5780601f1061156f5761010080835404028352916020019161159a565b820191906000526020600020905b81548152906001019060200180831161157d57829003601f168201915b5050505050815250508152602001906001019061131a565b50505050815260200160058201548152602001600682015481526020016007820160009054906101000a900473ffffffffffffffffffffffffffffffffffffffff1673ffffffffffffffffffffffffffffffffffffffff1673ffffffffffffffffffffffffffffffffffffffff1681526020016007820160149054906101000a900462ffffff1662ffffff1662ffffff1681525050905060008160200151510361165b57600080fd5b6000604051806101000160405280836060015181526020016000600281111561168757611686613200565b5b815260200187878080601f016020809104026020016040519081016040528093929190818152602001838380828437600081840152601f19601f8201169050808301925050505050505081526020018981526020018881526020013373ffffffffffffffffffffffffffffffffffffffff16815260200160405180602001604052806000815250815260200160405180602001604052806000815250815250905060028a8a60405161173a929190613f24565b90815260200160405180910390206004018190806001815401808255809150506001900390600052602060002090600802016000909190919091506000820151816000015560208201518160010160006101000a81548160ff021916908360028111156117aa576117a9613200565b5b021790555060408201518160020190816117c49190614371565b50606082015181600301556080820151816004015560a08201518160050160006101000a81548173ffffffffffffffffffffffffffffffffffffffff021916908373ffffffffffffffffffffffffffffffffffffffff16021790555060c08201518160060190816118359190614371565b5060e082015181600701908161184b9190614371565b505050600160028b8b604051611862929190613f24565b90815260200160405180910390206003015461187e9190614443565b60028b8b604051611890929190613f24565b90815260200160405180910390206003018190555050505050505050505050565b606060006118bd6101d4565b90506000805b8251811015611906578281815181106118df576118de613db1565b5b60200260200101516080015151826118f79190614443565b915080806001019150506118c3565b5060008167ffffffffffffffff81111561192357611922613b48565b5b60405190808252806020026020018201604052801561195c57816020015b611949613035565b8152602001906001900390816119415790505b5090506000805b8451811015611a145760005b85828151811061198257611981613db1565b5b60200260200101516080015151811015611a06578582815181106119a9576119a8613db1565b5b60200260200101516080015181815181106119c7576119c6613db1565b5b60200260200101518484806119db906142c1565b9550815181106119ee576119ed613db1565b5b6020026020010181905250808060010191505061196f565b508080600101915050611963565b508194505050505090565b60018181548110611a2f57600080fd5b906000526020600020016000915090508054611a4a90613e0f565b80601f0160208091040260200160405190810160405280929190818152602001828054611a7690613e0f565b8015611ac35780601f10611a9857610100808354040283529160200191611ac3565b820191906000526020600020905b815481529060010190602001808311611aa657829003601f168201915b505050505081565b60008383905011611b11576040517f08c379a0000000000000000000000000000000000000000000000000000000008152600401611b0890613ff5565b60405180910390fd5b600060028484604051611b25929190613f24565b908152602001604051809103902090506000816001018054611b4690613e0f565b905003611b88576040517f08c379a0000000000000000000000000000000000000000000000000000000008152600401611b7f906144c3565b60405180910390fd5b60007fffffffffffffffffffffffffffffffffffffffffffffffffffffffffffffffff905060005b8260040180549050811015611d525783836004018281548110611bd657611bd5613db1565b5b90600052602060002090600802016000015403611d455760006002811115611c0157611c00613200565b5b836004018281548110611c1757611c16613db1565b5b906000526020600020906008020160010160009054906101000a900460ff166002811115611c4857611c47613200565b5b14611c88576040517f08c379a0000000000000000000000000000000000000000000000000000000008152600401611c7f9061452f565b60405180910390fd5b3373ffffffffffffffffffffffffffffffffffffffff16836004018281548110611cb557611cb4613db1565b5b906000526020600020906008020160050160009054906101000a900473ffffffffffffffffffffffffffffffffffffffff1673ffffffffffffffffffffffffffffffffffffffff1614611d3d576040517f08c379a0000000000000000000000000000000000000000000000000000000008152600401611d34906145c1565b60405180910390fd5b809150611d52565b8080600101915050611bb0565b507fffffffffffffffffffffffffffffffffffffffffffffffffffffffffffffffff8103611db5576040517f08c379a0000000000000000000000000000000000000000000000000000000008152600401611dac9061462d565b60405180910390fd5b60018260040180549050611dc9919061464d565b811015611f30578160040160018360040180549050611de8919061464d565b81548110611df957611df8613db1565b5b9060005260206000209060080201826004018281548110611e1d57611e1c613db1565b5b9060005260206000209060080201600082015481600001556001820160009054906101000a900460ff168160010160006101000a81548160ff02191690836002811115611e6d57611e6c613200565b5b021790555060028201816002019081611e869190614697565b5060038201548160030155600482015481600401556005820160009054906101000a900473ffffffffffffffffffffffffffffffffffffffff168160050160006101000a81548173ffffffffffffffffffffffffffffffffffffffff021916908373ffffffffffffffffffffffffffffffffffffffff16021790555060068201816006019081611f169190614697565b5060078201816007019081611f2b9190614697565b509050505b81600401805480611f4457611f4361477f565b5b60019003818190600052602060002090600802016000808201600090556001820160006101000a81549060ff0219169055600282016000611f8591906130a2565b600382016000905560048201600090556005820160006101000a81549073ffffffffffffffffffffffffffffffffffffffff0219169055600682016000611fcc91906130a2565b600782016000611fdc91906130a2565b505090555050505050565b85856120246120157ffffffffffffffffffffffffffffffffffffffffffffffffb1effc4d726d80000612f80565b83612f8a90919063ffffffff16565b8015612050575061204f6120406804e1003b28d9280000612f80565b83612fa790919063ffffffff16565b5b801561209357506120926120837ffffffffffffffffffffffffffffffffffffffffffffffff63dff89ae4db00000612f80565b82612f8a90919063ffffffff16565b5b80156120bf57506120be6120af6809c2007651b2500000612f80565b82612fa790919063ffffffff16565b5b6120fe576040517f08c379a00000000000000000000000000000000000000000000000000000000081526004016120f590613edf565b60405180910390fd5b60008a905060008173ffffffffffffffffffffffffffffffffffffffff16636352211e8c6040518263ffffffff1660e01b815260040161213e91906147bd565b602060405180830381865afa15801561215b573d6000803e3d6000fd5b505050506040513d601f19601f8201168201806040525081019061217f91906147ed565b90503373ffffffffffffffffffffffffffffffffffffffff168173ffffffffffffffffffffffffffffffffffffffff16146121ef576040517f08c379a00000000000000000000000000000000000000000000000000000000081526004016121e69061488c565b60405180910390fd5b60008c905060008173ffffffffffffffffffffffffffffffffffffffff1663c87b56dd8e6040518263ffffffff1660e01b815260040161222f91906147bd565b600060405180830381865afa15801561224c573d6000803e3d6000fd5b505050506040513d6000823e3d601f19601f82011682018060405250810190612275919061491c565b51036122b6576040517f08c379a00000000000000000000000000000000000000000000000000000000081526004016122ad906149b1565b60405180910390fd5b600060028a8a6040516122ca929190613f24565b908152602001604051809103902060405180610120016040529081600082015481526020016001820180546122fe90613e0f565b80601f016020809104026020016040519081016040528092919081815260200182805461232a90613e0f565b80156123775780601f1061234c57610100808354040283529160200191612377565b820191906000526020600020905b81548152906001019060200180831161235a57829003601f168201915b5050505050815260200160028201805461239090613e0f565b80601f01602080910402602001604051908101604052809291908181526020018280546123bc90613e0f565b80156124095780601f106123de57610100808354040283529160200191612409565b820191906000526020600020905b8154815290600101906020018083116123ec57829003601f168201915b505050505081526020016003820154815260200160048201805480602002602001604051908101604052809291908181526020016000905b828210156126d9578382906000526020600020906008020160405180610100016040529081600082015481526020016001820160009054906101000a900460ff16600281111561249457612493613200565b5b60028111156124a6576124a5613200565b5b81526020016002820180546124ba90613e0f565b80601f01602080910402602001604051908101604052809291908181526020018280546124e690613e0f565b80156125335780601f1061250857610100808354040283529160200191612533565b820191906000526020600020905b81548152906001019060200180831161251657829003601f168201915b5050505050815260200160038201548152602001600482015481526020016005820160009054906101000a900473ffffffffffffffffffffffffffffffffffffffff1673ffffffffffffffffffffffffffffffffffffffff1673ffffffffffffffffffffffffffffffffffffffff1681526020016006820180546125b690613e0f565b80601f01602080910402602001604051908101604052809291908181526020018280546125e290613e0f565b801561262f5780601f106126045761010080835404028352916020019161262f565b820191906000526020600020905b81548152906001019060200180831161261257829003601f168201915b5050505050815260200160078201805461264890613e0f565b80601f016020809104026020016040519081016040528092919081815260200182805461267490613e0f565b80156126c15780601f10612696576101008083540402835291602001916126c1565b820191906000526020600020905b8154815290600101906020018083116126a457829003601f168201915b50505050508152505081526020019060010190612441565b50505050815260200160058201548152602001600682015481526020016007820160009054906101000a900473ffffffffffffffffffffffffffffffffffffffff1673ffffffffffffffffffffffffffffffffffffffff1673ffffffffffffffffffffffffffffffffffffffff1681526020016007820160149054906101000a900462ffffff1662ffffff1662ffffff1681525050905060008160200151510361278257600080fd5b60008273ffffffffffffffffffffffffffffffffffffffff1663c87b56dd8f6040518263ffffffff1660e01b81526004016127bd91906147bd565b600060405180830381865afa1580156127da573d6000803e3d6000fd5b505050506040513d6000823e3d601f19601f82011682018060405250810190612803919061491c565b90506000604051806101000160405280846060018051809190612825906142c1565b81525081526020016002808111156128405761283f613200565b5b81526020016040518060200160405280600081525081526020018f81526020018e81526020013373ffffffffffffffffffffffffffffffffffffffff1681526020018381526020018b8b8080601f016020809104026020016040519081016040528093929190818152602001838380828437600081840152601f19601f82011690508083019250505050505050815250905060028c8c6040516128e4929190613f24565b90815260200160405180910390206004018190806001815401808255809150506001900390600052602060002090600802016000909190919091506000820151816000015560208201518160010160006101000a81548160ff0219169083600281111561295457612953613200565b5b0217905550604082015181600201908161296e9190614371565b50606082015181600301556080820151816004015560a08201518160050160006101000a81548173ffffffffffffffffffffffffffffffffffffffff021916908373ffffffffffffffffffffffffffffffffffffffff16021790555060c08201518160060190816129df9190614371565b5060e08201518160070190816129f59190614371565b505050600160028d8d604051612a0c929190613f24565b908152602001604051809103902060030154612a289190614443565b60028d8d604051612a3a929190613f24565b90815260200160405180910390206003018190555050505050505050505050505050505050565b612a69612fce565b6000825111612aad576040517f08c379a0000000000000000000000000000000000000000000000000000000008152600401612aa490613ff5565b60405180910390fd5b6000600283604051612abf9190613e7c565b90815260200160405180910390206040518061012001604052908160008201548152602001600182018054612af390613e0f565b80601f0160208091040260200160405190810160405280929190818152602001828054612b1f90613e0f565b8015612b6c5780601f10612b4157610100808354040283529160200191612b6c565b820191906000526020600020905b815481529060010190602001808311612b4f57829003601f168201915b50505050508152602001600282018054612b8590613e0f565b80601f0160208091040260200160405190810160405280929190818152602001828054612bb190613e0f565b8015612bfe5780601f10612bd357610100808354040283529160200191612bfe565b820191906000526020600020905b815481529060010190602001808311612be157829003601f168201915b505050505081526020016003820154815260200160048201805480602002602001604051908101604052809291908181526020016000905b82821015612ece578382906000526020600020906008020160405180610100016040529081600082015481526020016001820160009054906101000a900460ff166002811115612c8957612c88613200565b5b6002811115612c9b57612c9a613200565b5b8152602001600282018054612caf90613e0f565b80601f0160208091040260200160405190810160405280929190818152602001828054612cdb90613e0f565b8015612d285780601f10612cfd57610100808354040283529160200191612d28565b820191906000526020600020905b815481529060010190602001808311612d0b57829003601f168201915b5050505050815260200160038201548152602001600482015481526020016005820160009054906101000a900473ffffffffffffffffffffffffffffffffffffffff1673ffffffffffffffffffffffffffffffffffffffff1673ffffffffffffffffffffffffffffffffffffffff168152602001600682018054612dab90613e0f565b80601f0160208091040260200160405190810160405280929190818152602001828054612dd790613e0f565b8015612e245780601f10612df957610100808354040283529160200191612e24565b820191906000526020600020905b815481529060010190602001808311612e0757829003601f168201915b50505050508152602001600782018054612e3d90613e0f565b80601f0160208091040260200160405190810160405280929190818152602001828054612e6990613e0f565b8015612eb65780601f10612e8b57610100808354040283529160200191612eb6565b820191906000526020600020905b815481529060010190602001808311612e9957829003601f168201915b50505050508152505081526020019060010190612c36565b50505050815260200160058201548152602001600682015481526020016007820160009054906101000a900473ffffffffffffffffffffffffffffffffffffffff1673ffffffffffffffffffffffffffffffffffffffff1673ffffffffffffffffffffffffffffffffffffffff1681526020016007820160149054906101000a900462ffffff1662ffffff1662ffffff16815250509050600081602001515103612f7757600080fd5b80915050919050565b6000819050919050565b6000612f9582612fc4565b612f9e84612fc4565b13905092915050565b6000612fb282612fc4565b612fbb84612fc4565b12905092915050565b6000819050919050565b60405180610120016040528060008152602001606081526020016060815260200160008152602001606081526020016000815260200160008152602001600073ffffffffffffffffffffffffffffffffffffffff168152602001600062ffffff1681525090565b604051806101000160405280600081526020016000600281111561305c5761305b613200565b5b8152602001606081526020016000815260200160008152602001600073ffffffffffffffffffffffffffffffffffffffff16815260200160608152602001606081525090565b5080546130ae90613e0f565b6000825580601f106130c057506130df565b601f0160209004906000526020600020908101906130de91906130e2565b5b50565b5b808211156130fb5760008160009055506001016130e3565b5090565b600081519050919050565b600082825260208201905092915050565b6000819050602082019050919050565b6000819050919050565b61313e8161312b565b82525050565b600081519050919050565b600082825260208201905092915050565b60005b8381101561317e578082015181840152602081019050613163565b60008484015250505050565b6000601f19601f8301169050919050565b60006131a682613144565b6131b0818561314f565b93506131c0818560208601613160565b6131c98161318a565b840191505092915050565b600081519050919050565b600082825260208201905092915050565b6000819050602082019050919050565b7f4e487b7100000000000000000000000000000000000000000000000000000000600052602160045260246000fd5b600381106132405761323f613200565b5b50565b60008190506132518261322f565b919050565b600061326182613243565b9050919050565b61327181613256565b82525050565b6000819050919050565b6000819050919050565b60006132a66132a161329c84613277565b613281565b613277565b9050919050565b6132b68161328b565b82525050565b600073ffffffffffffffffffffffffffffffffffffffff82169050919050565b60006132e7826132bc565b9050919050565b6132f7816132dc565b82525050565b6000610100830160008301516133166000860182613135565b5060208301516133296020860182613268565b5060408301518482036040860152613341828261319b565b915050606083015161335660608601826132ad565b50608083015161336960808601826132ad565b5060a083015161337c60a08601826132ee565b5060c083015184820360c0860152613394828261319b565b91505060e083015184820360e08601526133ae828261319b565b9150508091505092915050565b60006133c783836132fd565b905092915050565b6000602082019050919050565b60006133e7826131d4565b6133f181856131df565b935083602082028501613403856131f0565b8060005b8581101561343f578484038952815161342085826133bb565b945061342b836133cf565b925060208a01995050600181019050613407565b50829750879550505050505092915050565b600062ffffff82169050919050565b61346981613451565b82525050565b6000610120830160008301516134886000860182613135565b50602083015184820360208601526134a0828261319b565b915050604083015184820360408601526134ba828261319b565b91505060608301516134cf6060860182613135565b50608083015184820360808601526134e782826133dc565b91505060a08301516134fc60a08601826132ad565b5060c083015161350f60c08601826132ad565b5060e083015161352260e08601826132ee565b50610100830151613537610100860182613460565b508091505092915050565b600061354e838361346f565b905092915050565b6000602082019050919050565b600061356e826130ff565b613578818561310a565b93508360208202850161358a8561311b565b8060005b858110156135c657848403895281516135a78582613542565b94506135b283613556565b925060208a0199505060018101905061358e565b50829750879550505050505092915050565b600060208201905081810360008301526135f28184613563565b905092915050565b6000604051905090565b600080fd5b600080fd5b600080fd5b600080fd5b600080fd5b60008083601f8401126136335761363261360e565b5b8235905067ffffffffffffffff8111156136505761364f613613565b5b60208301915083600182028301111561366c5761366b613618565b5b9250929050565b61367c81613277565b811461368757600080fd5b50565b60008135905061369981613673565b92915050565b6136a881613451565b81146136b357600080fd5b50565b6000813590506136c58161369f565b92915050565b600080600080600080600060a0888a0312156136ea576136e9613604565b5b600088013567ffffffffffffffff81111561370857613707613609565b5b6137148a828b0161361d565b9750975050602088013567ffffffffffffffff81111561373757613736613609565b5b6137438a828b0161361d565b955095505060406137568a828b0161368a565b93505060606137678a828b0161368a565b92505060806137788a828b016136b6565b91505092959891949750929550565b6000806020838503121561379e5761379d613604565b5b600083013567ffffffffffffffff8111156137bc576137bb613609565b5b6137c88582860161361d565b92509250509250929050565b600082825260208201905092915050565b60006137f0826131d4565b6137fa81856137d4565b93508360208202850161380c856131f0565b8060005b85811015613848578484038952815161382985826133bb565b9450613834836133cf565b925060208a01995050600181019050613810565b50829750879550505050505092915050565b6000602082019050818103600083015261387481846137e5565b905092915050565b6000806000806000806080878903121561389957613898613604565b5b600087013567ffffffffffffffff8111156138b7576138b6613609565b5b6138c389828a0161361d565b965096505060206138d689828a0161368a565b94505060406138e789828a0161368a565b935050606087013567ffffffffffffffff81111561390857613907613609565b5b61391489828a0161361d565b92509250509295509295509295565b61392c8161312b565b811461393757600080fd5b50565b60008135905061394981613923565b92915050565b60006020828403121561396557613964613604565b5b60006139738482850161393a565b91505092915050565b600082825260208201905092915050565b600061399882613144565b6139a2818561397c565b93506139b2818560208601613160565b6139bb8161318a565b840191505092915050565b600060208201905081810360008301526139e0818461398d565b905092915050565b600080600060408486031215613a0157613a00613604565b5b600084013567ffffffffffffffff811115613a1f57613a1e613609565b5b613a2b8682870161361d565b93509350506020613a3e8682870161393a565b9150509250925092565b613a51816132dc565b8114613a5c57600080fd5b50565b600081359050613a6e81613a48565b92915050565b60008060008060008060008060c0898b031215613a9457613a93613604565b5b6000613aa28b828c01613a5f565b9850506020613ab38b828c0161393a565b9750506040613ac48b828c0161368a565b9650506060613ad58b828c0161368a565b955050608089013567ffffffffffffffff811115613af657613af5613609565b5b613b028b828c0161361d565b945094505060a089013567ffffffffffffffff811115613b2557613b24613609565b5b613b318b828c0161361d565b92509250509295985092959890939650565b600080fd5b7f4e487b7100000000000000000000000000000000000000000000000000000000600052604160045260246000fd5b613b808261318a565b810181811067ffffffffffffffff82111715613b9f57613b9e613b48565b5b80604052505050565b6000613bb26135fa565b9050613bbe8282613b77565b919050565b600067ffffffffffffffff821115613bde57613bdd613b48565b5b613be78261318a565b9050602081019050919050565b82818337600083830152505050565b6000613c16613c1184613bc3565b613ba8565b905082815260208101848484011115613c3257613c31613b43565b5b613c3d848285613bf4565b509392505050565b600082601f830112613c5a57613c5961360e565b5b8135613c6a848260208601613c03565b91505092915050565b600060208284031215613c8957613c88613604565b5b600082013567ffffffffffffffff811115613ca757613ca6613609565b5b613cb384828501613c45565b91505092915050565b600061012083016000830151613cd56000860182613135565b5060208301518482036020860152613ced828261319b565b91505060408301518482036040860152613d07828261319b565b9150506060830151613d1c6060860182613135565b5060808301518482036080860152613d3482826133dc565b91505060a0830151613d4960a08601826132ad565b5060c0830151613d5c60c08601826132ad565b5060e0830151613d6f60e08601826132ee565b50610100830151613d84610100860182613460565b508091505092915050565b60006020820190508181036000830152613da98184613cbc565b905092915050565b7f4e487b7100000000000000000000000000000000000000000000000000000000600052603260045260246000fd5b7f4e487b7100000000000000000000000000000000000000000000000000000000600052602260045260246000fd5b60006002820490506001821680613e2757607f821691505b602082108103613e3a57613e39613de0565b5b50919050565b600081905092915050565b6000613e5682613144565b613e608185613e40565b9350613e70818560208601613160565b80840191505092915050565b6000613e888284613e4b565b915081905092915050565b7f496e76616c6964206c6f636174696f6e00000000000000000000000000000000600082015250565b6000613ec960108361397c565b9150613ed482613e93565b602082019050919050565b60006020820190508181036000830152613ef881613ebc565b9050919050565b6000613f0b8385613e40565b9350613f18838584613bf4565b82840190509392505050565b6000613f31828486613eff565b91508190509392505050565b7f4c6179657220616c726561647920657869737473000000000000000000000000600082015250565b6000613f7360148361397c565b9150613f7e82613f3d565b602082019050919050565b60006020820190508181036000830152613fa281613f66565b9050919050565b7f6c61796572206e616d652063616e6e6f7420626520656d707479000000000000600082015250565b6000613fdf601a8361397c565b9150613fea82613fa9565b602082019050919050565b6000602082019050818103600083015261400e81613fd2565b9050919050565b600082905092915050565b60008190508160005260206000209050919050565b60006020601f8301049050919050565b600082821b905092915050565b6000600883026140827fffffffffffffffffffffffffffffffffffffffffffffffffffffffffffffffff82614045565b61408c8683614045565b95508019841693508086168417925050509392505050565b60006140bf6140ba6140b58461312b565b613281565b61312b565b9050919050565b6000819050919050565b6140d9836140a4565b6140ed6140e5826140c6565b848454614052565b825550505050565b600090565b6141026140f5565b61410d8184846140d0565b505050565b5b81811015614131576141266000826140fa565b600181019050614113565b5050565b601f8211156141765761414781614020565b61415084614035565b8101602085101561415f578190505b61417361416b85614035565b830182614112565b50505b505050565b600082821c905092915050565b60006141996000198460080261417b565b1980831691505092915050565b60006141b28383614188565b9150826002028217905092915050565b6141cc8383614015565b67ffffffffffffffff8111156141e5576141e4613b48565b5b6141ef8254613e0f565b6141fa828285614135565b6000601f8311600181146142295760008415614217578287013590505b61422185826141a6565b865550614289565b601f19841661423786614020565b60005b8281101561425f5784890135825560018201915060208501945060208101905061423a565b8683101561427c5784890135614278601f891682614188565b8355505b6001600288020188555050505b50505050505050565b7f4e487b7100000000000000000000000000000000000000000000000000000000600052601160045260246000fd5b60006142cc8261312b565b91507fffffffffffffffffffffffffffffffffffffffffffffffffffffffffffffffff82036142fe576142fd614292565b5b600182019050919050565b6000614315838561397c565b9350614322838584613bf4565b61432b8361318a565b840190509392505050565b60006040820190508181036000830152614351818688614309565b90508181036020830152614366818486614309565b905095945050505050565b61437a82613144565b67ffffffffffffffff81111561439357614392613b48565b5b61439d8254613e0f565b6143a8828285614135565b600060209050601f8311600181146143db57600084156143c9578287015190505b6143d385826141a6565b86555061443b565b601f1984166143e986614020565b60005b82811015614411578489015182556001820191506020850194506020810190506143ec565b8683101561442e578489015161442a601f891682614188565b8355505b6001600288020188555050505b505050505050565b600061444e8261312b565b91506144598361312b565b925082820190508082111561447157614470614292565b5b92915050565b7f4c6179657220646f6573206e6f74206578697374000000000000000000000000600082015250565b60006144ad60148361397c565b91506144b882614477565b602082019050919050565b600060208201905081810360008301526144dc816144a0565b9050919050565b7f456d626564206973206e6f742061206d65737361676500000000000000000000600082015250565b600061451960168361397c565b9150614524826144e3565b602082019050919050565b600060208201905081810360008301526145488161450c565b9050919050565b7f43616c6c6572206973206e6f742074686520617574686f72206f66207468652060008201527f6d65737361676500000000000000000000000000000000000000000000000000602082015250565b60006145ab60278361397c565b91506145b68261454f565b604082019050919050565b600060208201905081810360008301526145da8161459e565b9050919050565b7f4d65737361676520656d626564206e6f7420666f756e64000000000000000000600082015250565b600061461760178361397c565b9150614622826145e1565b602082019050919050565b600060208201905081810360008301526146468161460a565b9050919050565b60006146588261312b565b91506146638361312b565b925082820390508181111561467b5761467a614292565b5b92915050565b60008154905061469081613e0f565b9050919050565b8181036146a557505061477d565b6146ae82614681565b67ffffffffffffffff8111156146c7576146c6613b48565b5b6146d18254613e0f565b6146dc828285614135565b6000601f83116001811461470b57600084156146f9578287015490505b61470385826141a6565b865550614776565b601f19841661471987614020565b965061472486614020565b60005b8281101561474c57848901548255600182019150600185019450602081019050614727565b868310156147695784890154614765601f891682614188565b8355505b6001600288020188555050505b5050505050505b565b7f4e487b7100000000000000000000000000000000000000000000000000000000600052603160045260246000fd5b6147b78161312b565b82525050565b60006020820190506147d260008301846147ae565b92915050565b6000815190506147e781613a48565b92915050565b60006020828403121561480357614802613604565b5b6000614811848285016147d8565b91505092915050565b7f43616c6c6572206973206e6f7420746865206f776e6572206f6620746865207460008201527f6f6b656e00000000000000000000000000000000000000000000000000000000602082015250565b600061487660248361397c565b91506148818261481a565b604082019050919050565b600060208201905081810360008301526148a581614869565b9050919050565b60006148bf6148ba84613bc3565b613ba8565b9050828152602081018484840111156148db576148da613b43565b5b6148e6848285613160565b509392505050565b600082601f8301126149035761490261360e565b5b81516149138482602086016148ac565b91505092915050565b60006020828403121561493257614931613604565b5b600082015167ffffffffffffffff8111156149505761494f613609565b5b61495c848285016148ee565b91505092915050565b7f45524337323120646f6573206e6f7420737570706f727420746f6b656e555249600082015250565b600061499b60208361397c565b91506149a682614965565b602082019050919050565b600060208201905081810360008301526149ca8161498e565b905091905056fea264697066735822122030d913911d252b98443166820ea7c15620ed1055d04cea8daf0d300d42b8da9364736f6c63430008180033",
  "linkReferences": {},
  "deployedLinkReferences": {}
}