{
  "_format": "hh-sol-artifact-1",
  "contractName": "EthLatLong",
  "sourceName": "contracts/EthLatLong.sol",
  "abi": [
    {
      "anonymous": false,
      "inputs": [
        {
          "indexed": false,
          "internalType": "uint256",
          "name": "id",
          "type": "uint256"
        },
        {
          "indexed": false,
          "internalType": "string",
          "name": "layerName",
          "type": "string"
        },
        {
          "indexed": false,
          "internalType": "string",
          "name": "message",
          "type": "string"
        },
        {
          "indexed": false,
          "internalType": "address",
          "name": "author",
          "type": "address"
        }
      ],
      "name": "EmbedAdded",
      "type": "event"
    },
    {
      "anonymous": false,
      "inputs": [
        {
          "indexed": false,
          "internalType": "string",
          "name": "name",
          "type": "string"
        },
        {
          "indexed": false,
          "internalType": "string",
          "name": "description",
          "type": "string"
        },
        {
          "indexed": false,
          "internalType": "address",
          "name": "author",
          "type": "address"
        }
      ],
      "name": "LayerAdded",
      "type": "event"
    },
    {
      "inputs": [
        {
          "internalType": "string",
          "name": "name",
          "type": "string"
        },
        {
          "internalType": "string",
          "name": "description",
          "type": "string"
        },
        {
          "internalType": "SD59x18",
          "name": "lat",
          "type": "int256"
        },
        {
          "internalType": "SD59x18",
          "name": "long",
          "type": "int256"
        },
        {
          "internalType": "uint24",
          "name": "color",
          "type": "uint24"
        }
      ],
      "name": "addLayer",
      "outputs": [],
      "stateMutability": "nonpayable",
      "type": "function"
    },
    {
      "inputs": [
        {
          "internalType": "address",
          "name": "erc721Address",
          "type": "address"
        },
        {
          "internalType": "uint256",
          "name": "tokenId",
          "type": "uint256"
        },
        {
          "internalType": "SD59x18",
          "name": "lat",
          "type": "int256"
        },
        {
          "internalType": "SD59x18",
          "name": "long",
          "type": "int256"
        },
        {
          "internalType": "string",
          "name": "layerName",
          "type": "string"
        },
        {
          "internalType": "string",
          "name": "message",
          "type": "string"
        }
      ],
      "name": "addMedia",
      "outputs": [],
      "stateMutability": "nonpayable",
      "type": "function"
    },
    {
      "inputs": [
        {
          "internalType": "string",
          "name": "layerName",
          "type": "string"
        },
        {
          "internalType": "SD59x18",
          "name": "lat",
          "type": "int256"
        },
        {
          "internalType": "SD59x18",
          "name": "long",
          "type": "int256"
        },
        {
          "internalType": "string",
          "name": "message",
          "type": "string"
        }
      ],
      "name": "addMessage",
      "outputs": [],
      "stateMutability": "nonpayable",
      "type": "function"
    },
    {
      "inputs": [],
      "name": "getAllEmbeds",
      "outputs": [
        {
          "components": [
            {
              "internalType": "uint256",
              "name": "id",
              "type": "uint256"
            },
            {
              "internalType": "enum EthLatLong.Kinds",
              "name": "kind",
              "type": "uint8"
            },
            {
              "internalType": "string",
              "name": "message",
              "type": "string"
            },
            {
              "internalType": "SD59x18",
              "name": "lat",
              "type": "int256"
            },
            {
              "internalType": "SD59x18",
              "name": "long",
              "type": "int256"
            },
            {
              "internalType": "address",
              "name": "author",
              "type": "address"
            },
            {
              "internalType": "string",
              "name": "url",
              "type": "string"
            },
            {
              "internalType": "uint256",
              "name": "timestamp",
              "type": "uint256"
            }
          ],
          "internalType": "struct EthLatLong.Embed[]",
          "name": "",
          "type": "tuple[]"
        }
      ],
      "stateMutability": "view",
      "type": "function"
    },
    {
      "inputs": [],
      "name": "getAllLayers",
      "outputs": [
        {
          "components": [
            {
              "internalType": "uint256",
              "name": "id",
              "type": "uint256"
            },
            {
              "internalType": "string",
              "name": "name",
              "type": "string"
            },
            {
              "internalType": "string",
              "name": "description",
              "type": "string"
            },
            {
              "internalType": "uint256",
              "name": "embedN",
              "type": "uint256"
            },
            {
              "components": [
                {
                  "internalType": "uint256",
                  "name": "id",
                  "type": "uint256"
                },
                {
                  "internalType": "enum EthLatLong.Kinds",
                  "name": "kind",
                  "type": "uint8"
                },
                {
                  "internalType": "string",
                  "name": "message",
                  "type": "string"
                },
                {
                  "internalType": "SD59x18",
                  "name": "lat",
                  "type": "int256"
                },
                {
                  "internalType": "SD59x18",
                  "name": "long",
                  "type": "int256"
                },
                {
                  "internalType": "address",
                  "name": "author",
                  "type": "address"
                },
                {
                  "internalType": "string",
                  "name": "url",
                  "type": "string"
                },
                {
                  "internalType": "uint256",
                  "name": "timestamp",
                  "type": "uint256"
                }
              ],
              "internalType": "struct EthLatLong.Embed[]",
              "name": "embeds",
              "type": "tuple[]"
            },
            {
              "internalType": "SD59x18",
              "name": "lat",
              "type": "int256"
            },
            {
              "internalType": "SD59x18",
              "name": "long",
              "type": "int256"
            },
            {
              "internalType": "address",
              "name": "author",
              "type": "address"
            },
            {
              "internalType": "uint24",
              "name": "color",
              "type": "uint24"
            },
            {
              "internalType": "uint256",
              "name": "timestamp",
              "type": "uint256"
            }
          ],
          "internalType": "struct EthLatLong.Layer[]",
          "name": "",
          "type": "tuple[]"
        }
      ],
      "stateMutability": "view",
      "type": "function"
    },
    {
      "inputs": [
        {
          "internalType": "string",
          "name": "layerName",
          "type": "string"
        }
      ],
      "name": "getEmbeds",
      "outputs": [
        {
          "components": [
            {
              "internalType": "uint256",
              "name": "id",
              "type": "uint256"
            },
            {
              "internalType": "enum EthLatLong.Kinds",
              "name": "kind",
              "type": "uint8"
            },
            {
              "internalType": "string",
              "name": "message",
              "type": "string"
            },
            {
              "internalType": "SD59x18",
              "name": "lat",
              "type": "int256"
            },
            {
              "internalType": "SD59x18",
              "name": "long",
              "type": "int256"
            },
            {
              "internalType": "address",
              "name": "author",
              "type": "address"
            },
            {
              "internalType": "string",
              "name": "url",
              "type": "string"
            },
            {
              "internalType": "uint256",
              "name": "timestamp",
              "type": "uint256"
            }
          ],
          "internalType": "struct EthLatLong.Embed[]",
          "name": "embeds",
          "type": "tuple[]"
        }
      ],
      "stateMutability": "view",
      "type": "function"
    },
    {
      "inputs": [
        {
          "internalType": "string",
          "name": "name",
          "type": "string"
        }
      ],
      "name": "getLayer",
      "outputs": [
        {
          "components": [
            {
              "internalType": "uint256",
              "name": "id",
              "type": "uint256"
            },
            {
              "internalType": "string",
              "name": "name",
              "type": "string"
            },
            {
              "internalType": "string",
              "name": "description",
              "type": "string"
            },
            {
              "internalType": "uint256",
              "name": "embedN",
              "type": "uint256"
            },
            {
              "components": [
                {
                  "internalType": "uint256",
                  "name": "id",
                  "type": "uint256"
                },
                {
                  "internalType": "enum EthLatLong.Kinds",
                  "name": "kind",
                  "type": "uint8"
                },
                {
                  "internalType": "string",
                  "name": "message",
                  "type": "string"
                },
                {
                  "internalType": "SD59x18",
                  "name": "lat",
                  "type": "int256"
                },
                {
                  "internalType": "SD59x18",
                  "name": "long",
                  "type": "int256"
                },
                {
                  "internalType": "address",
                  "name": "author",
                  "type": "address"
                },
                {
                  "internalType": "string",
                  "name": "url",
                  "type": "string"
                },
                {
                  "internalType": "uint256",
                  "name": "timestamp",
                  "type": "uint256"
                }
              ],
              "internalType": "struct EthLatLong.Embed[]",
              "name": "embeds",
              "type": "tuple[]"
            },
            {
              "internalType": "SD59x18",
              "name": "lat",
              "type": "int256"
            },
            {
              "internalType": "SD59x18",
              "name": "long",
              "type": "int256"
            },
            {
              "internalType": "address",
              "name": "author",
              "type": "address"
            },
            {
              "internalType": "uint24",
              "name": "color",
              "type": "uint24"
            },
            {
              "internalType": "uint256",
              "name": "timestamp",
              "type": "uint256"
            }
          ],
          "internalType": "struct EthLatLong.Layer",
          "name": "",
          "type": "tuple"
        }
      ],
      "stateMutability": "view",
      "type": "function"
    },
    {
      "inputs": [
        {
          "internalType": "uint256",
          "name": "",
          "type": "uint256"
        }
      ],
      "name": "layerNames",
      "outputs": [
        {
          "internalType": "string",
          "name": "",
          "type": "string"
        }
      ],
      "stateMutability": "view",
      "type": "function"
    },
    {
      "inputs": [
        {
          "internalType": "string",
          "name": "layerName",
          "type": "string"
        },
        {
          "internalType": "uint256",
          "name": "id",
          "type": "uint256"
        }
      ],
      "name": "removeEmbed",
      "outputs": [],
      "stateMutability": "nonpayable",
      "type": "function"
    }
  ],
  "bytecode": "0x608060405234801561001057600080fd5b5061486d806100206000396000f3fe608060405234801561001057600080fd5b50600436106100935760003560e01c806347f9cf6f1161006657806347f9cf6f1461011e57806362415a191461013c57806382cb3c231461016c5780639c318e6714610188578063be0634b8146101b857610093565b806319a93b88146100985780632b6f2a0b146100b6578063358019ba146100d257806344f25dee14610102575b600080fd5b6100a06101d4565b6040516100ad91906133b7565b60405180910390f35b6100d060048036038101906100cb91906134aa565b610758565b005b6100ec60048036038101906100e79190613566565b610a9d565b6040516100f99190613639565b60405180910390f35b61011c6004803603810190610117919061365b565b610f41565b005b61012661176e565b6040516101339190613639565b60405180910390f35b6101566004803603810190610151919061372e565b6118dc565b60405161016391906137a5565b60405180910390f35b610186600480360381019061018191906137f3565b611988565b005b6101a2600480360381019061019d91906139f2565b6123a0565b6040516101af9190613b23565b60405180910390f35b6101d260048036038101906101cd9190613b45565b612841565b005b6060600060018054905067ffffffffffffffff8111156101f7576101f66138c7565b5b60405190808252806020026020018201604052801561023057816020015b61021d612d98565b8152602001906001900390816102155790505b50905060005b6001805490508110156107505760006001828154811061025957610258613ba5565b5b90600052602060002001805461026e90613c03565b80601f016020809104026020016040519081016040528092919081815260200182805461029a90613c03565b80156102e75780601f106102bc576101008083540402835291602001916102e7565b820191906000526020600020905b8154815290600101906020018083116102ca57829003601f168201915b505050505090506002816040516102fe9190613c70565b9081526020016040518091039020604051806101400160405290816000820154815260200160018201805461033290613c03565b80601f016020809104026020016040519081016040528092919081815260200182805461035e90613c03565b80156103ab5780601f10610380576101008083540402835291602001916103ab565b820191906000526020600020905b81548152906001019060200180831161038e57829003601f168201915b505050505081526020016002820180546103c490613c03565b80601f01602080910402602001604051908101604052809291908181526020018280546103f090613c03565b801561043d5780601f106104125761010080835404028352916020019161043d565b820191906000526020600020905b81548152906001019060200180831161042057829003601f168201915b505050505081526020016003820154815260200160048201805480602002602001604051908101604052809291908181526020016000905b82821015610685578382906000526020600020906008020160405180610100016040529081600082015481526020016001820160009054906101000a900460ff1660028111156104c8576104c7612fd1565b5b60028111156104da576104d9612fd1565b5b81526020016002820180546104ee90613c03565b80601f016020809104026020016040519081016040528092919081815260200182805461051a90613c03565b80156105675780601f1061053c57610100808354040283529160200191610567565b820191906000526020600020905b81548152906001019060200180831161054a57829003601f168201915b5050505050815260200160038201548152602001600482015481526020016005820160009054906101000a900473ffffffffffffffffffffffffffffffffffffffff1673ffffffffffffffffffffffffffffffffffffffff1673ffffffffffffffffffffffffffffffffffffffff1681526020016006820180546105ea90613c03565b80601f016020809104026020016040519081016040528092919081815260200182805461061690613c03565b80156106635780601f1061063857610100808354040283529160200191610663565b820191906000526020600020905b81548152906001019060200180831161064657829003601f168201915b5050505050815260200160078201548152505081526020019060010190610475565b50505050815260200160058201548152602001600682015481526020016007820160009054906101000a900473ffffffffffffffffffffffffffffffffffffffff1673ffffffffffffffffffffffffffffffffffffffff1673ffffffffffffffffffffffffffffffffffffffff1681526020016007820160149054906101000a900462ffffff1662ffffff1662ffffff16815260200160088201548152505083838151811061073757610736613ba5565b5b6020026020010181905250508080600101915050610236565b508091505090565b82826107956107867ffffffffffffffffffffffffffffffffffffffffffffffffb1effc4d726d80000612d4a565b83612d5490919063ffffffff16565b80156107c157506107c06107b16804e1003b28d9280000612d4a565b83612d7190919063ffffffff16565b5b801561080457506108036107f47ffffffffffffffffffffffffffffffffffffffffffffffff63dff89ae4db00000612d4a565b82612d5490919063ffffffff16565b5b8015610830575061082f6108206809c2007651b2500000612d4a565b82612d7190919063ffffffff16565b5b61086f576040517f08c379a000000000000000000000000000000000000000000000000000000000815260040161086690613cd3565b60405180910390fd5b600060028a8a604051610883929190613d18565b9081526020016040518091039020600101805461089f90613c03565b9050146108e1576040517f08c379a00000000000000000000000000000000000000000000000000000000081526004016108d890613d7d565b60405180910390fd5b60008989905011610927576040517f08c379a000000000000000000000000000000000000000000000000000000000815260040161091e90613de9565b60405180910390fd5b600060028a8a60405161093b929190613d18565b90815260200160405180910390209050898982600101918261095e929190613fb6565b508787826002019182610972929190613fb6565b50858160050181905550848160060181905550338160070160006101000a81548173ffffffffffffffffffffffffffffffffffffffff021916908373ffffffffffffffffffffffffffffffffffffffff160217905550838160070160146101000a81548162ffffff021916908362ffffff160217905550600054816000018190555042816008018190555060018a8a90918060018154018082558091505060019003906000526020600020016000909192909192909192909192509182610a3a929190613fb6565b50600080815480929190610a4d906140b5565b91905055507f4df704d41f857ced0b0cc8ab6a03ce59c659f82fa39e9dc9d370445349c76f3b8a8a8a8a33604051610a89959493929190614139565b60405180910390a150505050505050505050565b606060008383905011610ae5576040517f08c379a0000000000000000000000000000000000000000000000000000000008152600401610adc90613de9565b60405180910390fd5b600060028484604051610af9929190613d18565b90815260200160405180910390206040518061014001604052908160008201548152602001600182018054610b2d90613c03565b80601f0160208091040260200160405190810160405280929190818152602001828054610b5990613c03565b8015610ba65780601f10610b7b57610100808354040283529160200191610ba6565b820191906000526020600020905b815481529060010190602001808311610b8957829003601f168201915b50505050508152602001600282018054610bbf90613c03565b80601f0160208091040260200160405190810160405280929190818152602001828054610beb90613c03565b8015610c385780601f10610c0d57610100808354040283529160200191610c38565b820191906000526020600020905b815481529060010190602001808311610c1b57829003601f168201915b505050505081526020016003820154815260200160048201805480602002602001604051908101604052809291908181526020016000905b82821015610e80578382906000526020600020906008020160405180610100016040529081600082015481526020016001820160009054906101000a900460ff166002811115610cc357610cc2612fd1565b5b6002811115610cd557610cd4612fd1565b5b8152602001600282018054610ce990613c03565b80601f0160208091040260200160405190810160405280929190818152602001828054610d1590613c03565b8015610d625780601f10610d3757610100808354040283529160200191610d62565b820191906000526020600020905b815481529060010190602001808311610d4557829003601f168201915b5050505050815260200160038201548152602001600482015481526020016005820160009054906101000a900473ffffffffffffffffffffffffffffffffffffffff1673ffffffffffffffffffffffffffffffffffffffff1673ffffffffffffffffffffffffffffffffffffffff168152602001600682018054610de590613c03565b80601f0160208091040260200160405190810160405280929190818152602001828054610e1190613c03565b8015610e5e5780601f10610e3357610100808354040283529160200191610e5e565b820191906000526020600020905b815481529060010190602001808311610e4157829003601f168201915b5050505050815260200160078201548152505081526020019060010190610c70565b50505050815260200160058201548152602001600682015481526020016007820160009054906101000a900473ffffffffffffffffffffffffffffffffffffffff1673ffffffffffffffffffffffffffffffffffffffff1673ffffffffffffffffffffffffffffffffffffffff1681526020016007820160149054906101000a900462ffffff1662ffffff1662ffffff1681526020016008820154815250509050600081602001515103610f3357600080fd5b806080015191505092915050565b8383610f7e610f6f7ffffffffffffffffffffffffffffffffffffffffffffffffb1effc4d726d80000612d4a565b83612d5490919063ffffffff16565b8015610faa5750610fa9610f9a6804e1003b28d9280000612d4a565b83612d7190919063ffffffff16565b5b8015610fed5750610fec610fdd7ffffffffffffffffffffffffffffffffffffffffffffffff63dff89ae4db00000612d4a565b82612d5490919063ffffffff16565b5b801561101957506110186110096809c2007651b2500000612d4a565b82612d7190919063ffffffff16565b5b611058576040517f08c379a000000000000000000000000000000000000000000000000000000000815260040161104f90613cd3565b60405180910390fd5b6000888890501161109e576040517f08c379a000000000000000000000000000000000000000000000000000000000815260040161109590613de9565b60405180910390fd5b6000600289896040516110b2929190613d18565b908152602001604051809103902060405180610140016040529081600082015481526020016001820180546110e690613c03565b80601f016020809104026020016040519081016040528092919081815260200182805461111290613c03565b801561115f5780601f106111345761010080835404028352916020019161115f565b820191906000526020600020905b81548152906001019060200180831161114257829003601f168201915b5050505050815260200160028201805461117890613c03565b80601f01602080910402602001604051908101604052809291908181526020018280546111a490613c03565b80156111f15780601f106111c6576101008083540402835291602001916111f1565b820191906000526020600020905b8154815290600101906020018083116111d457829003601f168201915b505050505081526020016003820154815260200160048201805480602002602001604051908101604052809291908181526020016000905b82821015611439578382906000526020600020906008020160405180610100016040529081600082015481526020016001820160009054906101000a900460ff16600281111561127c5761127b612fd1565b5b600281111561128e5761128d612fd1565b5b81526020016002820180546112a290613c03565b80601f01602080910402602001604051908101604052809291908181526020018280546112ce90613c03565b801561131b5780601f106112f05761010080835404028352916020019161131b565b820191906000526020600020905b8154815290600101906020018083116112fe57829003601f168201915b5050505050815260200160038201548152602001600482015481526020016005820160009054906101000a900473ffffffffffffffffffffffffffffffffffffffff1673ffffffffffffffffffffffffffffffffffffffff1673ffffffffffffffffffffffffffffffffffffffff16815260200160068201805461139e90613c03565b80601f01602080910402602001604051908101604052809291908181526020018280546113ca90613c03565b80156114175780601f106113ec57610100808354040283529160200191611417565b820191906000526020600020905b8154815290600101906020018083116113fa57829003601f168201915b5050505050815260200160078201548152505081526020019060010190611229565b50505050815260200160058201548152602001600682015481526020016007820160009054906101000a900473ffffffffffffffffffffffffffffffffffffffff1673ffffffffffffffffffffffffffffffffffffffff1673ffffffffffffffffffffffffffffffffffffffff1681526020016007820160149054906101000a900462ffffff1662ffffff1662ffffff16815260200160088201548152505090506000816020015151036114ec57600080fd5b6000604051806101000160405280836060015181526020016000600281111561151857611517612fd1565b5b815260200187878080601f016020809104026020016040519081016040528093929190818152602001838380828437600081840152601f19601f8201169050808301925050505050505081526020018981526020018881526020013373ffffffffffffffffffffffffffffffffffffffff16815260200160405180602001604052806000815250815260200142815250905060028a8a6040516115bc929190613d18565b90815260200160405180910390206004018190806001815401808255809150506001900390600052602060002090600802016000909190919091506000820151816000015560208201518160010160006101000a81548160ff0219169083600281111561162c5761162b612fd1565b5b021790555060408201518160020190816116469190614182565b50606082015181600301556080820151816004015560a08201518160050160006101000a81548173ffffffffffffffffffffffffffffffffffffffff021916908373ffffffffffffffffffffffffffffffffffffffff16021790555060c08201518160060190816116b79190614182565b5060e0820151816007015550507f24aaf51f9d0ae349f166eb603d9fb89dac4759cc9a9f6602f83b10f76df0068a82606001518360200151888833604051611703959493929190614263565b60405180910390a1600160028b8b60405161171f929190613d18565b90815260200160405180910390206003015461173b91906142b8565b60028b8b60405161174d929190613d18565b90815260200160405180910390206003018190555050505050505050505050565b6060600061177a6101d4565b90506000805b82518110156117c35782818151811061179c5761179b613ba5565b5b60200260200101516080015151826117b491906142b8565b91508080600101915050611780565b5060008167ffffffffffffffff8111156117e0576117df6138c7565b5b60405190808252806020026020018201604052801561181957816020015b611806612e06565b8152602001906001900390816117fe5790505b5090506000805b84518110156118d15760005b85828151811061183f5761183e613ba5565b5b602002602001015160800151518110156118c35785828151811061186657611865613ba5565b5b602002602001015160800151818151811061188457611883613ba5565b5b6020026020010151848480611898906140b5565b9550815181106118ab576118aa613ba5565b5b6020026020010181905250808060010191505061182c565b508080600101915050611820565b508194505050505090565b600181815481106118ec57600080fd5b90600052602060002001600091509050805461190790613c03565b80601f016020809104026020016040519081016040528092919081815260200182805461193390613c03565b80156119805780601f1061195557610100808354040283529160200191611980565b820191906000526020600020905b81548152906001019060200180831161196357829003601f168201915b505050505081565b85856119c56119b67ffffffffffffffffffffffffffffffffffffffffffffffffb1effc4d726d80000612d4a565b83612d5490919063ffffffff16565b80156119f157506119f06119e16804e1003b28d9280000612d4a565b83612d7190919063ffffffff16565b5b8015611a345750611a33611a247ffffffffffffffffffffffffffffffffffffffffffffffff63dff89ae4db00000612d4a565b82612d5490919063ffffffff16565b5b8015611a605750611a5f611a506809c2007651b2500000612d4a565b82612d7190919063ffffffff16565b5b611a9f576040517f08c379a0000000000000000000000000000000000000000000000000000000008152600401611a9690613cd3565b60405180910390fd5b60008a905060008173ffffffffffffffffffffffffffffffffffffffff16636352211e8c6040518263ffffffff1660e01b8152600401611adf91906142ec565b602060405180830381865afa158015611afc573d6000803e3d6000fd5b505050506040513d601f19601f82011682018060405250810190611b20919061431c565b90503373ffffffffffffffffffffffffffffffffffffffff168173ffffffffffffffffffffffffffffffffffffffff1614611b90576040517f08c379a0000000000000000000000000000000000000000000000000000000008152600401611b87906143bb565b60405180910390fd5b60008c905060008173ffffffffffffffffffffffffffffffffffffffff1663c87b56dd8e6040518263ffffffff1660e01b8152600401611bd091906142ec565b600060405180830381865afa158015611bed573d6000803e3d6000fd5b505050506040513d6000823e3d601f19601f82011682018060405250810190611c16919061444b565b5103611c57576040517f08c379a0000000000000000000000000000000000000000000000000000000008152600401611c4e906144e0565b60405180910390fd5b600060028a8a604051611c6b929190613d18565b90815260200160405180910390206040518061014001604052908160008201548152602001600182018054611c9f90613c03565b80601f0160208091040260200160405190810160405280929190818152602001828054611ccb90613c03565b8015611d185780601f10611ced57610100808354040283529160200191611d18565b820191906000526020600020905b815481529060010190602001808311611cfb57829003601f168201915b50505050508152602001600282018054611d3190613c03565b80601f0160208091040260200160405190810160405280929190818152602001828054611d5d90613c03565b8015611daa5780601f10611d7f57610100808354040283529160200191611daa565b820191906000526020600020905b815481529060010190602001808311611d8d57829003601f168201915b505050505081526020016003820154815260200160048201805480602002602001604051908101604052809291908181526020016000905b82821015611ff2578382906000526020600020906008020160405180610100016040529081600082015481526020016001820160009054906101000a900460ff166002811115611e3557611e34612fd1565b5b6002811115611e4757611e46612fd1565b5b8152602001600282018054611e5b90613c03565b80601f0160208091040260200160405190810160405280929190818152602001828054611e8790613c03565b8015611ed45780601f10611ea957610100808354040283529160200191611ed4565b820191906000526020600020905b815481529060010190602001808311611eb757829003601f168201915b5050505050815260200160038201548152602001600482015481526020016005820160009054906101000a900473ffffffffffffffffffffffffffffffffffffffff1673ffffffffffffffffffffffffffffffffffffffff1673ffffffffffffffffffffffffffffffffffffffff168152602001600682018054611f5790613c03565b80601f0160208091040260200160405190810160405280929190818152602001828054611f8390613c03565b8015611fd05780601f10611fa557610100808354040283529160200191611fd0565b820191906000526020600020905b815481529060010190602001808311611fb357829003601f168201915b5050505050815260200160078201548152505081526020019060010190611de2565b50505050815260200160058201548152602001600682015481526020016007820160009054906101000a900473ffffffffffffffffffffffffffffffffffffffff1673ffffffffffffffffffffffffffffffffffffffff1673ffffffffffffffffffffffffffffffffffffffff1681526020016007820160149054906101000a900462ffffff1662ffffff1662ffffff16815260200160088201548152505090506000816020015151036120a557600080fd5b60008273ffffffffffffffffffffffffffffffffffffffff1663c87b56dd8f6040518263ffffffff1660e01b81526004016120e091906142ec565b600060405180830381865afa1580156120fd573d6000803e3d6000fd5b505050506040513d6000823e3d601f19601f82011682018060405250810190612126919061444b565b905060006040518061010001604052808460600151815260200160028081111561215357612152612fd1565b5b81526020018b8b8080601f016020809104026020016040519081016040528093929190818152602001838380828437600081840152601f19601f8201169050808301925050505050505081526020018f81526020018e81526020013373ffffffffffffffffffffffffffffffffffffffff16815260200183815260200142815250905060028c8c6040516121e8929190613d18565b90815260200160405180910390206004018190806001815401808255809150506001900390600052602060002090600802016000909190919091506000820151816000015560208201518160010160006101000a81548160ff0219169083600281111561225857612257612fd1565b5b021790555060408201518160020190816122729190614182565b50606082015181600301556080820151816004015560a08201518160050160006101000a81548173ffffffffffffffffffffffffffffffffffffffff021916908373ffffffffffffffffffffffffffffffffffffffff16021790555060c08201518160060190816122e39190614182565b5060e0820151816007015550507f24aaf51f9d0ae349f166eb603d9fb89dac4759cc9a9f6602f83b10f76df0068a836060015184602001518c8c3360405161232f959493929190614263565b60405180910390a1600160028d8d60405161234b929190613d18565b90815260200160405180910390206003015461236791906142b8565b60028d8d604051612379929190613d18565b90815260200160405180910390206003018190555050505050505050505050505050505050565b6123a8612d98565b60008251116123ec576040517f08c379a00000000000000000000000000000000000000000000000000000000081526004016123e390613de9565b60405180910390fd5b60006002836040516123fe9190613c70565b9081526020016040518091039020604051806101400160405290816000820154815260200160018201805461243290613c03565b80601f016020809104026020016040519081016040528092919081815260200182805461245e90613c03565b80156124ab5780601f10612480576101008083540402835291602001916124ab565b820191906000526020600020905b81548152906001019060200180831161248e57829003601f168201915b505050505081526020016002820180546124c490613c03565b80601f01602080910402602001604051908101604052809291908181526020018280546124f090613c03565b801561253d5780601f106125125761010080835404028352916020019161253d565b820191906000526020600020905b81548152906001019060200180831161252057829003601f168201915b505050505081526020016003820154815260200160048201805480602002602001604051908101604052809291908181526020016000905b82821015612785578382906000526020600020906008020160405180610100016040529081600082015481526020016001820160009054906101000a900460ff1660028111156125c8576125c7612fd1565b5b60028111156125da576125d9612fd1565b5b81526020016002820180546125ee90613c03565b80601f016020809104026020016040519081016040528092919081815260200182805461261a90613c03565b80156126675780601f1061263c57610100808354040283529160200191612667565b820191906000526020600020905b81548152906001019060200180831161264a57829003601f168201915b5050505050815260200160038201548152602001600482015481526020016005820160009054906101000a900473ffffffffffffffffffffffffffffffffffffffff1673ffffffffffffffffffffffffffffffffffffffff1673ffffffffffffffffffffffffffffffffffffffff1681526020016006820180546126ea90613c03565b80601f016020809104026020016040519081016040528092919081815260200182805461271690613c03565b80156127635780601f1061273857610100808354040283529160200191612763565b820191906000526020600020905b81548152906001019060200180831161274657829003601f168201915b5050505050815260200160078201548152505081526020019060010190612575565b50505050815260200160058201548152602001600682015481526020016007820160009054906101000a900473ffffffffffffffffffffffffffffffffffffffff1673ffffffffffffffffffffffffffffffffffffffff1673ffffffffffffffffffffffffffffffffffffffff1681526020016007820160149054906101000a900462ffffff1662ffffff1662ffffff168152602001600882015481525050905060008160200151510361283857600080fd5b80915050919050565b60008383905011612887576040517f08c379a000000000000000000000000000000000000000000000000000000000815260040161287e90613de9565b60405180910390fd5b60006002848460405161289b929190613d18565b9081526020016040518091039020905060008160010180546128bc90613c03565b9050036128fe576040517f08c379a00000000000000000000000000000000000000000000000000000000081526004016128f59061454c565b60405180910390fd5b60007fffffffffffffffffffffffffffffffffffffffffffffffffffffffffffffffff905060005b8260040180549050811015612ac8578383600401828154811061294c5761294b613ba5565b5b90600052602060002090600802016000015403612abb576000600281111561297757612976612fd1565b5b83600401828154811061298d5761298c613ba5565b5b906000526020600020906008020160010160009054906101000a900460ff1660028111156129be576129bd612fd1565b5b146129fe576040517f08c379a00000000000000000000000000000000000000000000000000000000081526004016129f5906145b8565b60405180910390fd5b3373ffffffffffffffffffffffffffffffffffffffff16836004018281548110612a2b57612a2a613ba5565b5b906000526020600020906008020160050160009054906101000a900473ffffffffffffffffffffffffffffffffffffffff1673ffffffffffffffffffffffffffffffffffffffff1614612ab3576040517f08c379a0000000000000000000000000000000000000000000000000000000008152600401612aaa9061464a565b60405180910390fd5b809150612ac8565b8080600101915050612926565b507fffffffffffffffffffffffffffffffffffffffffffffffffffffffffffffffff8103612b2b576040517f08c379a0000000000000000000000000000000000000000000000000000000008152600401612b22906146b6565b60405180910390fd5b60018260040180549050612b3f91906146d6565b811015612c9b578160040160018360040180549050612b5e91906146d6565b81548110612b6f57612b6e613ba5565b5b9060005260206000209060080201826004018281548110612b9357612b92613ba5565b5b9060005260206000209060080201600082015481600001556001820160009054906101000a900460ff168160010160006101000a81548160ff02191690836002811115612be357612be2612fd1565b5b021790555060028201816002019081612bfc9190614720565b5060038201548160030155600482015481600401556005820160009054906101000a900473ffffffffffffffffffffffffffffffffffffffff168160050160006101000a81548173ffffffffffffffffffffffffffffffffffffffff021916908373ffffffffffffffffffffffffffffffffffffffff16021790555060068201816006019081612c8c9190614720565b50600782015481600701559050505b81600401805480612caf57612cae614808565b5b60019003818190600052602060002090600802016000808201600090556001820160006101000a81549060ff0219169055600282016000612cf09190612e73565b600382016000905560048201600090556005820160006101000a81549073ffffffffffffffffffffffffffffffffffffffff0219169055600682016000612d379190612e73565b6007820160009055505090555050505050565b6000819050919050565b6000612d5f82612d8e565b612d6884612d8e565b13905092915050565b6000612d7c82612d8e565b612d8584612d8e565b12905092915050565b6000819050919050565b60405180610140016040528060008152602001606081526020016060815260200160008152602001606081526020016000815260200160008152602001600073ffffffffffffffffffffffffffffffffffffffff168152602001600062ffffff168152602001600081525090565b6040518061010001604052806000815260200160006002811115612e2d57612e2c612fd1565b5b8152602001606081526020016000815260200160008152602001600073ffffffffffffffffffffffffffffffffffffffff16815260200160608152602001600081525090565b508054612e7f90613c03565b6000825580601f10612e915750612eb0565b601f016020900490600052602060002090810190612eaf9190612eb3565b5b50565b5b80821115612ecc576000816000905550600101612eb4565b5090565b600081519050919050565b600082825260208201905092915050565b6000819050602082019050919050565b6000819050919050565b612f0f81612efc565b82525050565b600081519050919050565b600082825260208201905092915050565b60005b83811015612f4f578082015181840152602081019050612f34565b60008484015250505050565b6000601f19601f8301169050919050565b6000612f7782612f15565b612f818185612f20565b9350612f91818560208601612f31565b612f9a81612f5b565b840191505092915050565b600081519050919050565b600082825260208201905092915050565b6000819050602082019050919050565b7f4e487b7100000000000000000000000000000000000000000000000000000000600052602160045260246000fd5b6003811061301157613010612fd1565b5b50565b600081905061302282613000565b919050565b600061303282613014565b9050919050565b61304281613027565b82525050565b6000819050919050565b6000819050919050565b600061307761307261306d84613048565b613052565b613048565b9050919050565b6130878161305c565b82525050565b600073ffffffffffffffffffffffffffffffffffffffff82169050919050565b60006130b88261308d565b9050919050565b6130c8816130ad565b82525050565b6000610100830160008301516130e76000860182612f06565b5060208301516130fa6020860182613039565b50604083015184820360408601526131128282612f6c565b9150506060830151613127606086018261307e565b50608083015161313a608086018261307e565b5060a083015161314d60a08601826130bf565b5060c083015184820360c08601526131658282612f6c565b91505060e083015161317a60e0860182612f06565b508091505092915050565b600061319183836130ce565b905092915050565b6000602082019050919050565b60006131b182612fa5565b6131bb8185612fb0565b9350836020820285016131cd85612fc1565b8060005b8581101561320957848403895281516131ea8582613185565b94506131f583613199565b925060208a019950506001810190506131d1565b50829750879550505050505092915050565b600062ffffff82169050919050565b6132338161321b565b82525050565b6000610140830160008301516132526000860182612f06565b506020830151848203602086015261326a8282612f6c565b915050604083015184820360408601526132848282612f6c565b91505060608301516132996060860182612f06565b50608083015184820360808601526132b182826131a6565b91505060a08301516132c660a086018261307e565b5060c08301516132d960c086018261307e565b5060e08301516132ec60e08601826130bf565b5061010083015161330161010086018261322a565b50610120830151613316610120860182612f06565b508091505092915050565b600061332d8383613239565b905092915050565b6000602082019050919050565b600061334d82612ed0565b6133578185612edb565b93508360208202850161336985612eec565b8060005b858110156133a557848403895281516133868582613321565b945061339183613335565b925060208a0199505060018101905061336d565b50829750879550505050505092915050565b600060208201905081810360008301526133d18184613342565b905092915050565b6000604051905090565b600080fd5b600080fd5b600080fd5b600080fd5b600080fd5b60008083601f840112613412576134116133ed565b5b8235905067ffffffffffffffff81111561342f5761342e6133f2565b5b60208301915083600182028301111561344b5761344a6133f7565b5b9250929050565b61345b81613048565b811461346657600080fd5b50565b60008135905061347881613452565b92915050565b6134878161321b565b811461349257600080fd5b50565b6000813590506134a48161347e565b92915050565b600080600080600080600060a0888a0312156134c9576134c86133e3565b5b600088013567ffffffffffffffff8111156134e7576134e66133e8565b5b6134f38a828b016133fc565b9750975050602088013567ffffffffffffffff811115613516576135156133e8565b5b6135228a828b016133fc565b955095505060406135358a828b01613469565b93505060606135468a828b01613469565b92505060806135578a828b01613495565b91505092959891949750929550565b6000806020838503121561357d5761357c6133e3565b5b600083013567ffffffffffffffff81111561359b5761359a6133e8565b5b6135a7858286016133fc565b92509250509250929050565b600082825260208201905092915050565b60006135cf82612fa5565b6135d981856135b3565b9350836020820285016135eb85612fc1565b8060005b8581101561362757848403895281516136088582613185565b945061361383613199565b925060208a019950506001810190506135ef565b50829750879550505050505092915050565b6000602082019050818103600083015261365381846135c4565b905092915050565b60008060008060008060808789031215613678576136776133e3565b5b600087013567ffffffffffffffff811115613696576136956133e8565b5b6136a289828a016133fc565b965096505060206136b589828a01613469565b94505060406136c689828a01613469565b935050606087013567ffffffffffffffff8111156136e7576136e66133e8565b5b6136f389828a016133fc565b92509250509295509295509295565b61370b81612efc565b811461371657600080fd5b50565b60008135905061372881613702565b92915050565b600060208284031215613744576137436133e3565b5b600061375284828501613719565b91505092915050565b600082825260208201905092915050565b600061377782612f15565b613781818561375b565b9350613791818560208601612f31565b61379a81612f5b565b840191505092915050565b600060208201905081810360008301526137bf818461376c565b905092915050565b6137d0816130ad565b81146137db57600080fd5b50565b6000813590506137ed816137c7565b92915050565b60008060008060008060008060c0898b031215613813576138126133e3565b5b60006138218b828c016137de565b98505060206138328b828c01613719565b97505060406138438b828c01613469565b96505060606138548b828c01613469565b955050608089013567ffffffffffffffff811115613875576138746133e8565b5b6138818b828c016133fc565b945094505060a089013567ffffffffffffffff8111156138a4576138a36133e8565b5b6138b08b828c016133fc565b92509250509295985092959890939650565b600080fd5b7f4e487b7100000000000000000000000000000000000000000000000000000000600052604160045260246000fd5b6138ff82612f5b565b810181811067ffffffffffffffff8211171561391e5761391d6138c7565b5b80604052505050565b60006139316133d9565b905061393d82826138f6565b919050565b600067ffffffffffffffff82111561395d5761395c6138c7565b5b61396682612f5b565b9050602081019050919050565b82818337600083830152505050565b600061399561399084613942565b613927565b9050828152602081018484840111156139b1576139b06138c2565b5b6139bc848285613973565b509392505050565b600082601f8301126139d9576139d86133ed565b5b81356139e9848260208601613982565b91505092915050565b600060208284031215613a0857613a076133e3565b5b600082013567ffffffffffffffff811115613a2657613a256133e8565b5b613a32848285016139c4565b91505092915050565b600061014083016000830151613a546000860182612f06565b5060208301518482036020860152613a6c8282612f6c565b91505060408301518482036040860152613a868282612f6c565b9150506060830151613a9b6060860182612f06565b5060808301518482036080860152613ab382826131a6565b91505060a0830151613ac860a086018261307e565b5060c0830151613adb60c086018261307e565b5060e0830151613aee60e08601826130bf565b50610100830151613b0361010086018261322a565b50610120830151613b18610120860182612f06565b508091505092915050565b60006020820190508181036000830152613b3d8184613a3b565b905092915050565b600080600060408486031215613b5e57613b5d6133e3565b5b600084013567ffffffffffffffff811115613b7c57613b7b6133e8565b5b613b88868287016133fc565b93509350506020613b9b86828701613719565b9150509250925092565b7f4e487b7100000000000000000000000000000000000000000000000000000000600052603260045260246000fd5b7f4e487b7100000000000000000000000000000000000000000000000000000000600052602260045260246000fd5b60006002820490506001821680613c1b57607f821691505b602082108103613c2e57613c2d613bd4565b5b50919050565b600081905092915050565b6000613c4a82612f15565b613c548185613c34565b9350613c64818560208601612f31565b80840191505092915050565b6000613c7c8284613c3f565b915081905092915050565b7f496e76616c6964206c6f636174696f6e00000000000000000000000000000000600082015250565b6000613cbd60108361375b565b9150613cc882613c87565b602082019050919050565b60006020820190508181036000830152613cec81613cb0565b9050919050565b6000613cff8385613c34565b9350613d0c838584613973565b82840190509392505050565b6000613d25828486613cf3565b91508190509392505050565b7f4c6179657220616c726561647920657869737473000000000000000000000000600082015250565b6000613d6760148361375b565b9150613d7282613d31565b602082019050919050565b60006020820190508181036000830152613d9681613d5a565b9050919050565b7f6c61796572206e616d652063616e6e6f7420626520656d707479000000000000600082015250565b6000613dd3601a8361375b565b9150613dde82613d9d565b602082019050919050565b60006020820190508181036000830152613e0281613dc6565b9050919050565b600082905092915050565b60008190508160005260206000209050919050565b60006020601f8301049050919050565b600082821b905092915050565b600060088302613e767fffffffffffffffffffffffffffffffffffffffffffffffffffffffffffffffff82613e39565b613e808683613e39565b95508019841693508086168417925050509392505050565b6000613eb3613eae613ea984612efc565b613052565b612efc565b9050919050565b6000819050919050565b613ecd83613e98565b613ee1613ed982613eba565b848454613e46565b825550505050565b600090565b613ef6613ee9565b613f01818484613ec4565b505050565b5b81811015613f2557613f1a600082613eee565b600181019050613f07565b5050565b601f821115613f6a57613f3b81613e14565b613f4484613e29565b81016020851015613f53578190505b613f67613f5f85613e29565b830182613f06565b50505b505050565b600082821c905092915050565b6000613f8d60001984600802613f6f565b1980831691505092915050565b6000613fa68383613f7c565b9150826002028217905092915050565b613fc08383613e09565b67ffffffffffffffff811115613fd957613fd86138c7565b5b613fe38254613c03565b613fee828285613f29565b6000601f83116001811461401d576000841561400b578287013590505b6140158582613f9a565b86555061407d565b601f19841661402b86613e14565b60005b828110156140535784890135825560018201915060208501945060208101905061402e565b86831015614070578489013561406c601f891682613f7c565b8355505b6001600288020188555050505b50505050505050565b7f4e487b7100000000000000000000000000000000000000000000000000000000600052601160045260246000fd5b60006140c082612efc565b91507fffffffffffffffffffffffffffffffffffffffffffffffffffffffffffffffff82036140f2576140f1614086565b5b600182019050919050565b6000614109838561375b565b9350614116838584613973565b61411f83612f5b565b840190509392505050565b614133816130ad565b82525050565b600060608201905081810360008301526141548187896140fd565b905081810360208301526141698185876140fd565b9050614178604083018461412a565b9695505050505050565b61418b82612f15565b67ffffffffffffffff8111156141a4576141a36138c7565b5b6141ae8254613c03565b6141b9828285613f29565b600060209050601f8311600181146141ec57600084156141da578287015190505b6141e48582613f9a565b86555061424c565b601f1984166141fa86613e14565b60005b82811015614222578489015182556001820191506020850194506020810190506141fd565b8683101561423f578489015161423b601f891682613f7c565b8355505b6001600288020188555050505b505050505050565b61425d81612efc565b82525050565b60006080820190506142786000830188614254565b818103602083015261428a818761376c565b9050818103604083015261429f8185876140fd565b90506142ae606083018461412a565b9695505050505050565b60006142c382612efc565b91506142ce83612efc565b92508282019050808211156142e6576142e5614086565b5b92915050565b60006020820190506143016000830184614254565b92915050565b600081519050614316816137c7565b92915050565b600060208284031215614332576143316133e3565b5b600061434084828501614307565b91505092915050565b7f43616c6c6572206973206e6f7420746865206f776e6572206f6620746865207460008201527f6f6b656e00000000000000000000000000000000000000000000000000000000602082015250565b60006143a560248361375b565b91506143b082614349565b604082019050919050565b600060208201905081810360008301526143d481614398565b9050919050565b60006143ee6143e984613942565b613927565b90508281526020810184848401111561440a576144096138c2565b5b614415848285612f31565b509392505050565b600082601f830112614432576144316133ed565b5b81516144428482602086016143db565b91505092915050565b600060208284031215614461576144606133e3565b5b600082015167ffffffffffffffff81111561447f5761447e6133e8565b5b61448b8482850161441d565b91505092915050565b7f45524337323120646f6573206e6f7420737570706f727420746f6b656e555249600082015250565b60006144ca60208361375b565b91506144d582614494565b602082019050919050565b600060208201905081810360008301526144f9816144bd565b9050919050565b7f4c6179657220646f6573206e6f74206578697374000000000000000000000000600082015250565b600061453660148361375b565b915061454182614500565b602082019050919050565b6000602082019050818103600083015261456581614529565b9050919050565b7f456d626564206973206e6f742061206d65737361676500000000000000000000600082015250565b60006145a260168361375b565b91506145ad8261456c565b602082019050919050565b600060208201905081810360008301526145d181614595565b9050919050565b7f43616c6c6572206973206e6f742074686520617574686f72206f66207468652060008201527f6d65737361676500000000000000000000000000000000000000000000000000602082015250565b600061463460278361375b565b915061463f826145d8565b604082019050919050565b6000602082019050818103600083015261466381614627565b9050919050565b7f4d65737361676520656d626564206e6f7420666f756e64000000000000000000600082015250565b60006146a060178361375b565b91506146ab8261466a565b602082019050919050565b600060208201905081810360008301526146cf81614693565b9050919050565b60006146e182612efc565b91506146ec83612efc565b925082820390508181111561470457614703614086565b5b92915050565b60008154905061471981613c03565b9050919050565b81810361472e575050614806565b6147378261470a565b67ffffffffffffffff8111156147505761474f6138c7565b5b61475a8254613c03565b614765828285613f29565b6000601f8311600181146147945760008415614782578287015490505b61478c8582613f9a565b8655506147ff565b601f1984166147a287613e14565b96506147ad86613e14565b60005b828110156147d5578489015482556001820191506001850194506020810190506147b0565b868310156147f257848901546147ee601f891682613f7c565b8355505b6001600288020188555050505b5050505050505b565b7f4e487b7100000000000000000000000000000000000000000000000000000000600052603160045260246000fdfea26469706673582212208310029b45b4a926929cd3c63fe0a6567e56a852affbc420808f6abd5480e55e64736f6c63430008180033",
  "linkReferences": {},
  "deployedLinkReferences": {}
}