{
  "_format": "hh-sol-artifact-1",
  "contractName": "EthLatLong",
  "sourceName": "contracts/EthLatLong.sol",
  "abi": [
    {
      "anonymous": false,
      "inputs": [
        {
          "indexed": false,
          "internalType": "string",
          "name": "name",
          "type": "string"
        },
        {
          "indexed": false,
          "internalType": "string",
          "name": "description",
          "type": "string"
        }
      ],
      "name": "LayerAdded",
      "type": "event"
    },
    {
      "inputs": [
        {
          "internalType": "string",
          "name": "name",
          "type": "string"
        },
        {
          "internalType": "string",
          "name": "description",
          "type": "string"
        },
        {
          "internalType": "SD59x18",
          "name": "lat",
          "type": "int256"
        },
        {
          "internalType": "SD59x18",
          "name": "long",
          "type": "int256"
        },
        {
          "internalType": "uint24",
          "name": "color",
          "type": "uint24"
        }
      ],
      "name": "addLayer",
      "outputs": [],
      "stateMutability": "nonpayable",
      "type": "function"
    },
    {
      "inputs": [
        {
          "internalType": "address",
          "name": "erc721Address",
          "type": "address"
        },
        {
          "internalType": "uint256",
          "name": "tokenId",
          "type": "uint256"
        },
        {
          "internalType": "SD59x18",
          "name": "lat",
          "type": "int256"
        },
        {
          "internalType": "SD59x18",
          "name": "long",
          "type": "int256"
        },
        {
          "internalType": "string",
          "name": "layerName",
          "type": "string"
        },
        {
          "internalType": "string",
          "name": "description",
          "type": "string"
        }
      ],
      "name": "addMedia",
      "outputs": [],
      "stateMutability": "nonpayable",
      "type": "function"
    },
    {
      "inputs": [
        {
          "internalType": "string",
          "name": "layerName",
          "type": "string"
        },
        {
          "internalType": "SD59x18",
          "name": "lat",
          "type": "int256"
        },
        {
          "internalType": "SD59x18",
          "name": "long",
          "type": "int256"
        },
        {
          "internalType": "string",
          "name": "message",
          "type": "string"
        }
      ],
      "name": "addMessage",
      "outputs": [],
      "stateMutability": "nonpayable",
      "type": "function"
    },
    {
      "inputs": [],
      "name": "getAllEmbeds",
      "outputs": [
        {
          "components": [
            {
              "internalType": "uint256",
              "name": "id",
              "type": "uint256"
            },
            {
              "internalType": "enum EthLatLong.Kinds",
              "name": "kind",
              "type": "uint8"
            },
            {
              "internalType": "string",
              "name": "message",
              "type": "string"
            },
            {
              "internalType": "SD59x18",
              "name": "lat",
              "type": "int256"
            },
            {
              "internalType": "SD59x18",
              "name": "long",
              "type": "int256"
            },
            {
              "internalType": "address",
              "name": "author",
              "type": "address"
            },
            {
              "internalType": "string",
              "name": "url",
              "type": "string"
            },
            {
              "internalType": "string",
              "name": "description",
              "type": "string"
            }
          ],
          "internalType": "struct EthLatLong.Embed[]",
          "name": "",
          "type": "tuple[]"
        }
      ],
      "stateMutability": "view",
      "type": "function"
    },
    {
      "inputs": [],
      "name": "getAllLayers",
      "outputs": [
        {
          "components": [
            {
              "internalType": "uint256",
              "name": "id",
              "type": "uint256"
            },
            {
              "internalType": "string",
              "name": "name",
              "type": "string"
            },
            {
              "internalType": "string",
              "name": "description",
              "type": "string"
            },
            {
              "internalType": "uint256",
              "name": "embedN",
              "type": "uint256"
            },
            {
              "components": [
                {
                  "internalType": "uint256",
                  "name": "id",
                  "type": "uint256"
                },
                {
                  "internalType": "enum EthLatLong.Kinds",
                  "name": "kind",
                  "type": "uint8"
                },
                {
                  "internalType": "string",
                  "name": "message",
                  "type": "string"
                },
                {
                  "internalType": "SD59x18",
                  "name": "lat",
                  "type": "int256"
                },
                {
                  "internalType": "SD59x18",
                  "name": "long",
                  "type": "int256"
                },
                {
                  "internalType": "address",
                  "name": "author",
                  "type": "address"
                },
                {
                  "internalType": "string",
                  "name": "url",
                  "type": "string"
                },
                {
                  "internalType": "string",
                  "name": "description",
                  "type": "string"
                }
              ],
              "internalType": "struct EthLatLong.Embed[]",
              "name": "embeds",
              "type": "tuple[]"
            },
            {
              "internalType": "SD59x18",
              "name": "lat",
              "type": "int256"
            },
            {
              "internalType": "SD59x18",
              "name": "long",
              "type": "int256"
            },
            {
              "internalType": "address",
              "name": "author",
              "type": "address"
            },
            {
              "internalType": "uint24",
              "name": "color",
              "type": "uint24"
            }
          ],
          "internalType": "struct EthLatLong.Layer[]",
          "name": "",
          "type": "tuple[]"
        }
      ],
      "stateMutability": "view",
      "type": "function"
    },
    {
      "inputs": [
        {
          "internalType": "string",
          "name": "layerName",
          "type": "string"
        }
      ],
      "name": "getEmbeds",
      "outputs": [
        {
          "components": [
            {
              "internalType": "uint256",
              "name": "id",
              "type": "uint256"
            },
            {
              "internalType": "enum EthLatLong.Kinds",
              "name": "kind",
              "type": "uint8"
            },
            {
              "internalType": "string",
              "name": "message",
              "type": "string"
            },
            {
              "internalType": "SD59x18",
              "name": "lat",
              "type": "int256"
            },
            {
              "internalType": "SD59x18",
              "name": "long",
              "type": "int256"
            },
            {
              "internalType": "address",
              "name": "author",
              "type": "address"
            },
            {
              "internalType": "string",
              "name": "url",
              "type": "string"
            },
            {
              "internalType": "string",
              "name": "description",
              "type": "string"
            }
          ],
          "internalType": "struct EthLatLong.Embed[]",
          "name": "embeds",
          "type": "tuple[]"
        }
      ],
      "stateMutability": "view",
      "type": "function"
    },
    {
      "inputs": [
        {
          "internalType": "string",
          "name": "name",
          "type": "string"
        }
      ],
      "name": "getLayer",
      "outputs": [
        {
          "components": [
            {
              "internalType": "uint256",
              "name": "id",
              "type": "uint256"
            },
            {
              "internalType": "string",
              "name": "name",
              "type": "string"
            },
            {
              "internalType": "string",
              "name": "description",
              "type": "string"
            },
            {
              "internalType": "uint256",
              "name": "embedN",
              "type": "uint256"
            },
            {
              "components": [
                {
                  "internalType": "uint256",
                  "name": "id",
                  "type": "uint256"
                },
                {
                  "internalType": "enum EthLatLong.Kinds",
                  "name": "kind",
                  "type": "uint8"
                },
                {
                  "internalType": "string",
                  "name": "message",
                  "type": "string"
                },
                {
                  "internalType": "SD59x18",
                  "name": "lat",
                  "type": "int256"
                },
                {
                  "internalType": "SD59x18",
                  "name": "long",
                  "type": "int256"
                },
                {
                  "internalType": "address",
                  "name": "author",
                  "type": "address"
                },
                {
                  "internalType": "string",
                  "name": "url",
                  "type": "string"
                },
                {
                  "internalType": "string",
                  "name": "description",
                  "type": "string"
                }
              ],
              "internalType": "struct EthLatLong.Embed[]",
              "name": "embeds",
              "type": "tuple[]"
            },
            {
              "internalType": "SD59x18",
              "name": "lat",
              "type": "int256"
            },
            {
              "internalType": "SD59x18",
              "name": "long",
              "type": "int256"
            },
            {
              "internalType": "address",
              "name": "author",
              "type": "address"
            },
            {
              "internalType": "uint24",
              "name": "color",
              "type": "uint24"
            }
          ],
          "internalType": "struct EthLatLong.Layer",
          "name": "",
          "type": "tuple"
        }
      ],
      "stateMutability": "view",
      "type": "function"
    },
    {
      "inputs": [
        {
          "internalType": "uint256",
          "name": "",
          "type": "uint256"
        }
      ],
      "name": "layerNames",
      "outputs": [
        {
          "internalType": "string",
          "name": "",
          "type": "string"
        }
      ],
      "stateMutability": "view",
      "type": "function"
    },
    {
      "inputs": [
        {
          "internalType": "string",
          "name": "layerName",
          "type": "string"
        },
        {
          "internalType": "uint256",
          "name": "id",
          "type": "uint256"
        }
      ],
      "name": "removeMessage",
      "outputs": [],
      "stateMutability": "nonpayable",
      "type": "function"
    }
  ],
  "bytecode": "0x608060405234801561001057600080fd5b50614969806100206000396000f3fe608060405234801561001057600080fd5b50600436106100935760003560e01c806347f9cf6f1161006657806347f9cf6f1461011e57806362415a191461013c5780637d3790061461016c57806382cb3c23146101885780639c318e67146101a457610093565b806319a93b88146100985780632b6f2a0b146100b6578063358019ba146100d257806344f25dee14610102575b600080fd5b6100a06101d4565b6040516100ad919061353a565b60405180910390f35b6100d060048036038101906100cb919061362d565b6107d6565b005b6100ec60048036038101906100e791906136e9565b610b10565b6040516100f991906137bc565b60405180910390f35b61011c600480360381019061011791906137de565b611032565b005b61012661186a565b60405161013391906137bc565b60405180910390f35b610156600480360381019061015191906138b1565b6119d8565b6040516101639190613928565b60405180910390f35b6101866004803603810190610181919061394a565b611a84565b005b6101a2600480360381019061019d91906139d6565b611fa0565b005b6101be60048036038101906101b99190613bd5565b6129c3565b6040516101cb9190613cf1565b60405180910390f35b6060600060018054905067ffffffffffffffff8111156101f7576101f6613aaa565b5b60405190808252806020026020018201604052801561023057816020015b61021d612f30565b8152602001906001900390816102155790505b50905060005b6001805490508110156107ce5760006001828154811061025957610258613d13565b5b90600052602060002001805461026e90613d71565b80601f016020809104026020016040519081016040528092919081815260200182805461029a90613d71565b80156102e75780601f106102bc576101008083540402835291602001916102e7565b820191906000526020600020905b8154815290600101906020018083116102ca57829003601f168201915b505050505090506002816040516102fe9190613dde565b9081526020016040518091039020604051806101200160405290816000820154815260200160018201805461033290613d71565b80601f016020809104026020016040519081016040528092919081815260200182805461035e90613d71565b80156103ab5780601f10610380576101008083540402835291602001916103ab565b820191906000526020600020905b81548152906001019060200180831161038e57829003601f168201915b505050505081526020016002820180546103c490613d71565b80601f01602080910402602001604051908101604052809291908181526020018280546103f090613d71565b801561043d5780601f106104125761010080835404028352916020019161043d565b820191906000526020600020905b81548152906001019060200180831161042057829003601f168201915b505050505081526020016003820154815260200160048201805480602002602001604051908101604052809291908181526020016000905b8282101561070d578382906000526020600020906008020160405180610100016040529081600082015481526020016001820160009054906101000a900460ff1660028111156104c8576104c7613162565b5b60028111156104da576104d9613162565b5b81526020016002820180546104ee90613d71565b80601f016020809104026020016040519081016040528092919081815260200182805461051a90613d71565b80156105675780601f1061053c57610100808354040283529160200191610567565b820191906000526020600020905b81548152906001019060200180831161054a57829003601f168201915b5050505050815260200160038201548152602001600482015481526020016005820160009054906101000a900473ffffffffffffffffffffffffffffffffffffffff1673ffffffffffffffffffffffffffffffffffffffff1673ffffffffffffffffffffffffffffffffffffffff1681526020016006820180546105ea90613d71565b80601f016020809104026020016040519081016040528092919081815260200182805461061690613d71565b80156106635780601f1061063857610100808354040283529160200191610663565b820191906000526020600020905b81548152906001019060200180831161064657829003601f168201915b5050505050815260200160078201805461067c90613d71565b80601f01602080910402602001604051908101604052809291908181526020018280546106a890613d71565b80156106f55780601f106106ca576101008083540402835291602001916106f5565b820191906000526020600020905b8154815290600101906020018083116106d857829003601f168201915b50505050508152505081526020019060010190610475565b50505050815260200160058201548152602001600682015481526020016007820160009054906101000a900473ffffffffffffffffffffffffffffffffffffffff1673ffffffffffffffffffffffffffffffffffffffff1673ffffffffffffffffffffffffffffffffffffffff1681526020016007820160149054906101000a900462ffffff1662ffffff1662ffffff16815250508383815181106107b5576107b4613d13565b5b6020026020010181905250508080600101915050610236565b508091505090565b82826108136108047ffffffffffffffffffffffffffffffffffffffffffffffffb1effc4d726d80000612ee2565b83612eec90919063ffffffff16565b801561083f575061083e61082f6804e1003b28d9280000612ee2565b83612f0990919063ffffffff16565b5b801561088257506108816108727ffffffffffffffffffffffffffffffffffffffffffffffff63dff89ae4db00000612ee2565b82612eec90919063ffffffff16565b5b80156108ae57506108ad61089e6809c2007651b2500000612ee2565b82612f0990919063ffffffff16565b5b6108ed576040517f08c379a00000000000000000000000000000000000000000000000000000000081526004016108e490613e41565b60405180910390fd5b600060028a8a604051610901929190613e86565b9081526020016040518091039020600101805461091d90613d71565b90501461095f576040517f08c379a000000000000000000000000000000000000000000000000000000000815260040161095690613eeb565b60405180910390fd5b600089899050116109a5576040517f08c379a000000000000000000000000000000000000000000000000000000000815260040161099c90613f57565b60405180910390fd5b600060028a8a6040516109b9929190613e86565b9081526020016040518091039020905089898260010191826109dc929190614124565b5087878260020191826109f0929190614124565b50858160050181905550848160060181905550338160070160006101000a81548173ffffffffffffffffffffffffffffffffffffffff021916908373ffffffffffffffffffffffffffffffffffffffff160217905550838160070160146101000a81548162ffffff021916908362ffffff160217905550600054816000018190555060018a8a90918060018154018082558091505060019003906000526020600020016000909192909192909192909192509182610aaf929190614124565b50600080815480929190610ac290614223565b91905055507f7b0948d5de2c2c0cfb37744557d07b8ca6ccb7aa1c0ed394278d39c8aed9e9978a8a8a8a604051610afc9493929190614298565b60405180910390a150505050505050505050565b606060008383905011610b58576040517f08c379a0000000000000000000000000000000000000000000000000000000008152600401610b4f90613f57565b60405180910390fd5b600060028484604051610b6c929190613e86565b90815260200160405180910390206040518061012001604052908160008201548152602001600182018054610ba090613d71565b80601f0160208091040260200160405190810160405280929190818152602001828054610bcc90613d71565b8015610c195780601f10610bee57610100808354040283529160200191610c19565b820191906000526020600020905b815481529060010190602001808311610bfc57829003601f168201915b50505050508152602001600282018054610c3290613d71565b80601f0160208091040260200160405190810160405280929190818152602001828054610c5e90613d71565b8015610cab5780601f10610c8057610100808354040283529160200191610cab565b820191906000526020600020905b815481529060010190602001808311610c8e57829003601f168201915b505050505081526020016003820154815260200160048201805480602002602001604051908101604052809291908181526020016000905b82821015610f7b578382906000526020600020906008020160405180610100016040529081600082015481526020016001820160009054906101000a900460ff166002811115610d3657610d35613162565b5b6002811115610d4857610d47613162565b5b8152602001600282018054610d5c90613d71565b80601f0160208091040260200160405190810160405280929190818152602001828054610d8890613d71565b8015610dd55780601f10610daa57610100808354040283529160200191610dd5565b820191906000526020600020905b815481529060010190602001808311610db857829003601f168201915b5050505050815260200160038201548152602001600482015481526020016005820160009054906101000a900473ffffffffffffffffffffffffffffffffffffffff1673ffffffffffffffffffffffffffffffffffffffff1673ffffffffffffffffffffffffffffffffffffffff168152602001600682018054610e5890613d71565b80601f0160208091040260200160405190810160405280929190818152602001828054610e8490613d71565b8015610ed15780601f10610ea657610100808354040283529160200191610ed1565b820191906000526020600020905b815481529060010190602001808311610eb457829003601f168201915b50505050508152602001600782018054610eea90613d71565b80601f0160208091040260200160405190810160405280929190818152602001828054610f1690613d71565b8015610f635780601f10610f3857610100808354040283529160200191610f63565b820191906000526020600020905b815481529060010190602001808311610f4657829003601f168201915b50505050508152505081526020019060010190610ce3565b50505050815260200160058201548152602001600682015481526020016007820160009054906101000a900473ffffffffffffffffffffffffffffffffffffffff1673ffffffffffffffffffffffffffffffffffffffff1673ffffffffffffffffffffffffffffffffffffffff1681526020016007820160149054906101000a900462ffffff1662ffffff1662ffffff1681525050905060008160200151510361102457600080fd5b806080015191505092915050565b838361106f6110607ffffffffffffffffffffffffffffffffffffffffffffffffb1effc4d726d80000612ee2565b83612eec90919063ffffffff16565b801561109b575061109a61108b6804e1003b28d9280000612ee2565b83612f0990919063ffffffff16565b5b80156110de57506110dd6110ce7ffffffffffffffffffffffffffffffffffffffffffffffff63dff89ae4db00000612ee2565b82612eec90919063ffffffff16565b5b801561110a57506111096110fa6809c2007651b2500000612ee2565b82612f0990919063ffffffff16565b5b611149576040517f08c379a000000000000000000000000000000000000000000000000000000000815260040161114090613e41565b60405180910390fd5b6000888890501161118f576040517f08c379a000000000000000000000000000000000000000000000000000000000815260040161118690613f57565b60405180910390fd5b6000600289896040516111a3929190613e86565b908152602001604051809103902060405180610120016040529081600082015481526020016001820180546111d790613d71565b80601f016020809104026020016040519081016040528092919081815260200182805461120390613d71565b80156112505780601f1061122557610100808354040283529160200191611250565b820191906000526020600020905b81548152906001019060200180831161123357829003601f168201915b5050505050815260200160028201805461126990613d71565b80601f016020809104026020016040519081016040528092919081815260200182805461129590613d71565b80156112e25780601f106112b7576101008083540402835291602001916112e2565b820191906000526020600020905b8154815290600101906020018083116112c557829003601f168201915b505050505081526020016003820154815260200160048201805480602002602001604051908101604052809291908181526020016000905b828210156115b2578382906000526020600020906008020160405180610100016040529081600082015481526020016001820160009054906101000a900460ff16600281111561136d5761136c613162565b5b600281111561137f5761137e613162565b5b815260200160028201805461139390613d71565b80601f01602080910402602001604051908101604052809291908181526020018280546113bf90613d71565b801561140c5780601f106113e15761010080835404028352916020019161140c565b820191906000526020600020905b8154815290600101906020018083116113ef57829003601f168201915b5050505050815260200160038201548152602001600482015481526020016005820160009054906101000a900473ffffffffffffffffffffffffffffffffffffffff1673ffffffffffffffffffffffffffffffffffffffff1673ffffffffffffffffffffffffffffffffffffffff16815260200160068201805461148f90613d71565b80601f01602080910402602001604051908101604052809291908181526020018280546114bb90613d71565b80156115085780601f106114dd57610100808354040283529160200191611508565b820191906000526020600020905b8154815290600101906020018083116114eb57829003601f168201915b5050505050815260200160078201805461152190613d71565b80601f016020809104026020016040519081016040528092919081815260200182805461154d90613d71565b801561159a5780601f1061156f5761010080835404028352916020019161159a565b820191906000526020600020905b81548152906001019060200180831161157d57829003601f168201915b5050505050815250508152602001906001019061131a565b50505050815260200160058201548152602001600682015481526020016007820160009054906101000a900473ffffffffffffffffffffffffffffffffffffffff1673ffffffffffffffffffffffffffffffffffffffff1673ffffffffffffffffffffffffffffffffffffffff1681526020016007820160149054906101000a900462ffffff1662ffffff1662ffffff1681525050905060008160200151510361165b57600080fd5b600060405180610100016040528083606001805180919061167b90614223565b81525081526020016000600281111561169757611696613162565b5b815260200187878080601f016020809104026020016040519081016040528093929190818152602001838380828437600081840152601f19601f8201169050808301925050505050505081526020018981526020018881526020013373ffffffffffffffffffffffffffffffffffffffff16815260200160405180602001604052806000815250815260200160405180602001604052806000815250815250905060028a8a60405161174a929190613e86565b90815260200160405180910390206004018190806001815401808255809150506001900390600052602060002090600802016000909190919091506000820151816000015560208201518160010160006101000a81548160ff021916908360028111156117ba576117b9613162565b5b021790555060408201518160020190816117d491906142d3565b50606082015181600301556080820151816004015560a08201518160050160006101000a81548173ffffffffffffffffffffffffffffffffffffffff021916908373ffffffffffffffffffffffffffffffffffffffff16021790555060c082015181600601908161184591906142d3565b5060e082015181600701908161185b91906142d3565b50505050505050505050505050565b606060006118766101d4565b90506000805b82518110156118bf5782818151811061189857611897613d13565b5b60200260200101516080015151826118b091906143a5565b9150808060010191505061187c565b5060008167ffffffffffffffff8111156118dc576118db613aaa565b5b60405190808252806020026020018201604052801561191557816020015b611902612f97565b8152602001906001900390816118fa5790505b5090506000805b84518110156119cd5760005b85828151811061193b5761193a613d13565b5b602002602001015160800151518110156119bf5785828151811061196257611961613d13565b5b60200260200101516080015181815181106119805761197f613d13565b5b602002602001015184848061199490614223565b9550815181106119a7576119a6613d13565b5b60200260200101819052508080600101915050611928565b50808060010191505061191c565b508194505050505090565b600181815481106119e857600080fd5b906000526020600020016000915090508054611a0390613d71565b80601f0160208091040260200160405190810160405280929190818152602001828054611a2f90613d71565b8015611a7c5780601f10611a5157610100808354040283529160200191611a7c565b820191906000526020600020905b815481529060010190602001808311611a5f57829003601f168201915b505050505081565b60008383905011611aca576040517f08c379a0000000000000000000000000000000000000000000000000000000008152600401611ac190613f57565b60405180910390fd5b600060028484604051611ade929190613e86565b908152602001604051809103902090506000816001018054611aff90613d71565b905003611b41576040517f08c379a0000000000000000000000000000000000000000000000000000000008152600401611b3890614425565b60405180910390fd5b60007fffffffffffffffffffffffffffffffffffffffffffffffffffffffffffffffff905060005b8260040180549050811015611d0b5783836004018281548110611b8f57611b8e613d13565b5b90600052602060002090600802016000015403611cfe5760006002811115611bba57611bb9613162565b5b836004018281548110611bd057611bcf613d13565b5b906000526020600020906008020160010160009054906101000a900460ff166002811115611c0157611c00613162565b5b14611c41576040517f08c379a0000000000000000000000000000000000000000000000000000000008152600401611c3890614491565b60405180910390fd5b3373ffffffffffffffffffffffffffffffffffffffff16836004018281548110611c6e57611c6d613d13565b5b906000526020600020906008020160050160009054906101000a900473ffffffffffffffffffffffffffffffffffffffff1673ffffffffffffffffffffffffffffffffffffffff1614611cf6576040517f08c379a0000000000000000000000000000000000000000000000000000000008152600401611ced90614523565b60405180910390fd5b809150611d0b565b8080600101915050611b69565b507fffffffffffffffffffffffffffffffffffffffffffffffffffffffffffffffff8103611d6e576040517f08c379a0000000000000000000000000000000000000000000000000000000008152600401611d659061458f565b60405180910390fd5b60018260040180549050611d8291906145af565b811015611ee9578160040160018360040180549050611da191906145af565b81548110611db257611db1613d13565b5b9060005260206000209060080201826004018281548110611dd657611dd5613d13565b5b9060005260206000209060080201600082015481600001556001820160009054906101000a900460ff168160010160006101000a81548160ff02191690836002811115611e2657611e25613162565b5b021790555060028201816002019081611e3f91906145f9565b5060038201548160030155600482015481600401556005820160009054906101000a900473ffffffffffffffffffffffffffffffffffffffff168160050160006101000a81548173ffffffffffffffffffffffffffffffffffffffff021916908373ffffffffffffffffffffffffffffffffffffffff16021790555060068201816006019081611ecf91906145f9565b5060078201816007019081611ee491906145f9565b509050505b81600401805480611efd57611efc6146e1565b5b60019003818190600052602060002090600802016000808201600090556001820160006101000a81549060ff0219169055600282016000611f3e9190613004565b600382016000905560048201600090556005820160006101000a81549073ffffffffffffffffffffffffffffffffffffffff0219169055600682016000611f859190613004565b600782016000611f959190613004565b505090555050505050565b8585611fdd611fce7ffffffffffffffffffffffffffffffffffffffffffffffffb1effc4d726d80000612ee2565b83612eec90919063ffffffff16565b80156120095750612008611ff96804e1003b28d9280000612ee2565b83612f0990919063ffffffff16565b5b801561204c575061204b61203c7ffffffffffffffffffffffffffffffffffffffffffffffff63dff89ae4db00000612ee2565b82612eec90919063ffffffff16565b5b801561207857506120776120686809c2007651b2500000612ee2565b82612f0990919063ffffffff16565b5b6120b7576040517f08c379a00000000000000000000000000000000000000000000000000000000081526004016120ae90613e41565b60405180910390fd5b60008a905060008173ffffffffffffffffffffffffffffffffffffffff16636352211e8c6040518263ffffffff1660e01b81526004016120f7919061471f565b602060405180830381865afa158015612114573d6000803e3d6000fd5b505050506040513d601f19601f82011682018060405250810190612138919061474f565b90503373ffffffffffffffffffffffffffffffffffffffff168173ffffffffffffffffffffffffffffffffffffffff16146121a8576040517f08c379a000000000000000000000000000000000000000000000000000000000815260040161219f906147ee565b60405180910390fd5b60008c905060008173ffffffffffffffffffffffffffffffffffffffff1663c87b56dd8e6040518263ffffffff1660e01b81526004016121e8919061471f565b600060405180830381865afa158015612205573d6000803e3d6000fd5b505050506040513d6000823e3d601f19601f8201168201806040525081019061222e919061487e565b510361226f576040517f08c379a000000000000000000000000000000000000000000000000000000000815260040161226690614913565b60405180910390fd5b600060028a8a604051612283929190613e86565b908152602001604051809103902060405180610120016040529081600082015481526020016001820180546122b790613d71565b80601f01602080910402602001604051908101604052809291908181526020018280546122e390613d71565b80156123305780601f1061230557610100808354040283529160200191612330565b820191906000526020600020905b81548152906001019060200180831161231357829003601f168201915b5050505050815260200160028201805461234990613d71565b80601f016020809104026020016040519081016040528092919081815260200182805461237590613d71565b80156123c25780601f10612397576101008083540402835291602001916123c2565b820191906000526020600020905b8154815290600101906020018083116123a557829003601f168201915b505050505081526020016003820154815260200160048201805480602002602001604051908101604052809291908181526020016000905b82821015612692578382906000526020600020906008020160405180610100016040529081600082015481526020016001820160009054906101000a900460ff16600281111561244d5761244c613162565b5b600281111561245f5761245e613162565b5b815260200160028201805461247390613d71565b80601f016020809104026020016040519081016040528092919081815260200182805461249f90613d71565b80156124ec5780601f106124c1576101008083540402835291602001916124ec565b820191906000526020600020905b8154815290600101906020018083116124cf57829003601f168201915b5050505050815260200160038201548152602001600482015481526020016005820160009054906101000a900473ffffffffffffffffffffffffffffffffffffffff1673ffffffffffffffffffffffffffffffffffffffff1673ffffffffffffffffffffffffffffffffffffffff16815260200160068201805461256f90613d71565b80601f016020809104026020016040519081016040528092919081815260200182805461259b90613d71565b80156125e85780601f106125bd576101008083540402835291602001916125e8565b820191906000526020600020905b8154815290600101906020018083116125cb57829003601f168201915b5050505050815260200160078201805461260190613d71565b80601f016020809104026020016040519081016040528092919081815260200182805461262d90613d71565b801561267a5780601f1061264f5761010080835404028352916020019161267a565b820191906000526020600020905b81548152906001019060200180831161265d57829003601f168201915b505050505081525050815260200190600101906123fa565b50505050815260200160058201548152602001600682015481526020016007820160009054906101000a900473ffffffffffffffffffffffffffffffffffffffff1673ffffffffffffffffffffffffffffffffffffffff1673ffffffffffffffffffffffffffffffffffffffff1681526020016007820160149054906101000a900462ffffff1662ffffff1662ffffff1681525050905060008160200151510361273b57600080fd5b60008273ffffffffffffffffffffffffffffffffffffffff1663c87b56dd8f6040518263ffffffff1660e01b8152600401612776919061471f565b600060405180830381865afa158015612793573d6000803e3d6000fd5b505050506040513d6000823e3d601f19601f820116820180604052508101906127bc919061487e565b905060006040518061010001604052808460600180518091906127de90614223565b81525081526020016002808111156127f9576127f8613162565b5b81526020016040518060200160405280600081525081526020018f81526020018e81526020013373ffffffffffffffffffffffffffffffffffffffff1681526020018381526020018b8b8080601f016020809104026020016040519081016040528093929190818152602001838380828437600081840152601f19601f82011690508083019250505050505050815250905060028c8c60405161289d929190613e86565b90815260200160405180910390206004018190806001815401808255809150506001900390600052602060002090600802016000909190919091506000820151816000015560208201518160010160006101000a81548160ff0219169083600281111561290d5761290c613162565b5b0217905550604082015181600201908161292791906142d3565b50606082015181600301556080820151816004015560a08201518160050160006101000a81548173ffffffffffffffffffffffffffffffffffffffff021916908373ffffffffffffffffffffffffffffffffffffffff16021790555060c082015181600601908161299891906142d3565b5060e08201518160070190816129ae91906142d3565b50505050505050505050505050505050505050565b6129cb612f30565b6000825111612a0f576040517f08c379a0000000000000000000000000000000000000000000000000000000008152600401612a0690613f57565b60405180910390fd5b6000600283604051612a219190613dde565b90815260200160405180910390206040518061012001604052908160008201548152602001600182018054612a5590613d71565b80601f0160208091040260200160405190810160405280929190818152602001828054612a8190613d71565b8015612ace5780601f10612aa357610100808354040283529160200191612ace565b820191906000526020600020905b815481529060010190602001808311612ab157829003601f168201915b50505050508152602001600282018054612ae790613d71565b80601f0160208091040260200160405190810160405280929190818152602001828054612b1390613d71565b8015612b605780601f10612b3557610100808354040283529160200191612b60565b820191906000526020600020905b815481529060010190602001808311612b4357829003601f168201915b505050505081526020016003820154815260200160048201805480602002602001604051908101604052809291908181526020016000905b82821015612e30578382906000526020600020906008020160405180610100016040529081600082015481526020016001820160009054906101000a900460ff166002811115612beb57612bea613162565b5b6002811115612bfd57612bfc613162565b5b8152602001600282018054612c1190613d71565b80601f0160208091040260200160405190810160405280929190818152602001828054612c3d90613d71565b8015612c8a5780601f10612c5f57610100808354040283529160200191612c8a565b820191906000526020600020905b815481529060010190602001808311612c6d57829003601f168201915b5050505050815260200160038201548152602001600482015481526020016005820160009054906101000a900473ffffffffffffffffffffffffffffffffffffffff1673ffffffffffffffffffffffffffffffffffffffff1673ffffffffffffffffffffffffffffffffffffffff168152602001600682018054612d0d90613d71565b80601f0160208091040260200160405190810160405280929190818152602001828054612d3990613d71565b8015612d865780601f10612d5b57610100808354040283529160200191612d86565b820191906000526020600020905b815481529060010190602001808311612d6957829003601f168201915b50505050508152602001600782018054612d9f90613d71565b80601f0160208091040260200160405190810160405280929190818152602001828054612dcb90613d71565b8015612e185780601f10612ded57610100808354040283529160200191612e18565b820191906000526020600020905b815481529060010190602001808311612dfb57829003601f168201915b50505050508152505081526020019060010190612b98565b50505050815260200160058201548152602001600682015481526020016007820160009054906101000a900473ffffffffffffffffffffffffffffffffffffffff1673ffffffffffffffffffffffffffffffffffffffff1673ffffffffffffffffffffffffffffffffffffffff1681526020016007820160149054906101000a900462ffffff1662ffffff1662ffffff16815250509050600081602001515103612ed957600080fd5b80915050919050565b6000819050919050565b6000612ef782612f26565b612f0084612f26565b13905092915050565b6000612f1482612f26565b612f1d84612f26565b12905092915050565b6000819050919050565b60405180610120016040528060008152602001606081526020016060815260200160008152602001606081526020016000815260200160008152602001600073ffffffffffffffffffffffffffffffffffffffff168152602001600062ffffff1681525090565b6040518061010001604052806000815260200160006002811115612fbe57612fbd613162565b5b8152602001606081526020016000815260200160008152602001600073ffffffffffffffffffffffffffffffffffffffff16815260200160608152602001606081525090565b50805461301090613d71565b6000825580601f106130225750613041565b601f0160209004906000526020600020908101906130409190613044565b5b50565b5b8082111561305d576000816000905550600101613045565b5090565b600081519050919050565b600082825260208201905092915050565b6000819050602082019050919050565b6000819050919050565b6130a08161308d565b82525050565b600081519050919050565b600082825260208201905092915050565b60005b838110156130e05780820151818401526020810190506130c5565b60008484015250505050565b6000601f19601f8301169050919050565b6000613108826130a6565b61311281856130b1565b93506131228185602086016130c2565b61312b816130ec565b840191505092915050565b600081519050919050565b600082825260208201905092915050565b6000819050602082019050919050565b7f4e487b7100000000000000000000000000000000000000000000000000000000600052602160045260246000fd5b600381106131a2576131a1613162565b5b50565b60008190506131b382613191565b919050565b60006131c3826131a5565b9050919050565b6131d3816131b8565b82525050565b6000819050919050565b6000819050919050565b60006132086132036131fe846131d9565b6131e3565b6131d9565b9050919050565b613218816131ed565b82525050565b600073ffffffffffffffffffffffffffffffffffffffff82169050919050565b60006132498261321e565b9050919050565b6132598161323e565b82525050565b6000610100830160008301516132786000860182613097565b50602083015161328b60208601826131ca565b50604083015184820360408601526132a382826130fd565b91505060608301516132b8606086018261320f565b5060808301516132cb608086018261320f565b5060a08301516132de60a0860182613250565b5060c083015184820360c08601526132f682826130fd565b91505060e083015184820360e086015261331082826130fd565b9150508091505092915050565b6000613329838361325f565b905092915050565b6000602082019050919050565b600061334982613136565b6133538185613141565b93508360208202850161336585613152565b8060005b858110156133a15784840389528151613382858261331d565b945061338d83613331565b925060208a01995050600181019050613369565b50829750879550505050505092915050565b600062ffffff82169050919050565b6133cb816133b3565b82525050565b6000610120830160008301516133ea6000860182613097565b506020830151848203602086015261340282826130fd565b9150506040830151848203604086015261341c82826130fd565b91505060608301516134316060860182613097565b5060808301518482036080860152613449828261333e565b91505060a083015161345e60a086018261320f565b5060c083015161347160c086018261320f565b5060e083015161348460e0860182613250565b506101008301516134996101008601826133c2565b508091505092915050565b60006134b083836133d1565b905092915050565b6000602082019050919050565b60006134d082613061565b6134da818561306c565b9350836020820285016134ec8561307d565b8060005b85811015613528578484038952815161350985826134a4565b9450613514836134b8565b925060208a019950506001810190506134f0565b50829750879550505050505092915050565b6000602082019050818103600083015261355481846134c5565b905092915050565b6000604051905090565b600080fd5b600080fd5b600080fd5b600080fd5b600080fd5b60008083601f84011261359557613594613570565b5b8235905067ffffffffffffffff8111156135b2576135b1613575565b5b6020830191508360018202830111156135ce576135cd61357a565b5b9250929050565b6135de816131d9565b81146135e957600080fd5b50565b6000813590506135fb816135d5565b92915050565b61360a816133b3565b811461361557600080fd5b50565b60008135905061362781613601565b92915050565b600080600080600080600060a0888a03121561364c5761364b613566565b5b600088013567ffffffffffffffff81111561366a5761366961356b565b5b6136768a828b0161357f565b9750975050602088013567ffffffffffffffff8111156136995761369861356b565b5b6136a58a828b0161357f565b955095505060406136b88a828b016135ec565b93505060606136c98a828b016135ec565b92505060806136da8a828b01613618565b91505092959891949750929550565b60008060208385031215613700576136ff613566565b5b600083013567ffffffffffffffff81111561371e5761371d61356b565b5b61372a8582860161357f565b92509250509250929050565b600082825260208201905092915050565b600061375282613136565b61375c8185613736565b93508360208202850161376e85613152565b8060005b858110156137aa578484038952815161378b858261331d565b945061379683613331565b925060208a01995050600181019050613772565b50829750879550505050505092915050565b600060208201905081810360008301526137d68184613747565b905092915050565b600080600080600080608087890312156137fb576137fa613566565b5b600087013567ffffffffffffffff8111156138195761381861356b565b5b61382589828a0161357f565b9650965050602061383889828a016135ec565b945050604061384989828a016135ec565b935050606087013567ffffffffffffffff81111561386a5761386961356b565b5b61387689828a0161357f565b92509250509295509295509295565b61388e8161308d565b811461389957600080fd5b50565b6000813590506138ab81613885565b92915050565b6000602082840312156138c7576138c6613566565b5b60006138d58482850161389c565b91505092915050565b600082825260208201905092915050565b60006138fa826130a6565b61390481856138de565b93506139148185602086016130c2565b61391d816130ec565b840191505092915050565b6000602082019050818103600083015261394281846138ef565b905092915050565b60008060006040848603121561396357613962613566565b5b600084013567ffffffffffffffff8111156139815761398061356b565b5b61398d8682870161357f565b935093505060206139a08682870161389c565b9150509250925092565b6139b38161323e565b81146139be57600080fd5b50565b6000813590506139d0816139aa565b92915050565b60008060008060008060008060c0898b0312156139f6576139f5613566565b5b6000613a048b828c016139c1565b9850506020613a158b828c0161389c565b9750506040613a268b828c016135ec565b9650506060613a378b828c016135ec565b955050608089013567ffffffffffffffff811115613a5857613a5761356b565b5b613a648b828c0161357f565b945094505060a089013567ffffffffffffffff811115613a8757613a8661356b565b5b613a938b828c0161357f565b92509250509295985092959890939650565b600080fd5b7f4e487b7100000000000000000000000000000000000000000000000000000000600052604160045260246000fd5b613ae2826130ec565b810181811067ffffffffffffffff82111715613b0157613b00613aaa565b5b80604052505050565b6000613b1461355c565b9050613b208282613ad9565b919050565b600067ffffffffffffffff821115613b4057613b3f613aaa565b5b613b49826130ec565b9050602081019050919050565b82818337600083830152505050565b6000613b78613b7384613b25565b613b0a565b905082815260208101848484011115613b9457613b93613aa5565b5b613b9f848285613b56565b509392505050565b600082601f830112613bbc57613bbb613570565b5b8135613bcc848260208601613b65565b91505092915050565b600060208284031215613beb57613bea613566565b5b600082013567ffffffffffffffff811115613c0957613c0861356b565b5b613c1584828501613ba7565b91505092915050565b600061012083016000830151613c376000860182613097565b5060208301518482036020860152613c4f82826130fd565b91505060408301518482036040860152613c6982826130fd565b9150506060830151613c7e6060860182613097565b5060808301518482036080860152613c96828261333e565b91505060a0830151613cab60a086018261320f565b5060c0830151613cbe60c086018261320f565b5060e0830151613cd160e0860182613250565b50610100830151613ce66101008601826133c2565b508091505092915050565b60006020820190508181036000830152613d0b8184613c1e565b905092915050565b7f4e487b7100000000000000000000000000000000000000000000000000000000600052603260045260246000fd5b7f4e487b7100000000000000000000000000000000000000000000000000000000600052602260045260246000fd5b60006002820490506001821680613d8957607f821691505b602082108103613d9c57613d9b613d42565b5b50919050565b600081905092915050565b6000613db8826130a6565b613dc28185613da2565b9350613dd28185602086016130c2565b80840191505092915050565b6000613dea8284613dad565b915081905092915050565b7f496e76616c6964206c6f636174696f6e00000000000000000000000000000000600082015250565b6000613e2b6010836138de565b9150613e3682613df5565b602082019050919050565b60006020820190508181036000830152613e5a81613e1e565b9050919050565b6000613e6d8385613da2565b9350613e7a838584613b56565b82840190509392505050565b6000613e93828486613e61565b91508190509392505050565b7f4c6179657220616c726561647920657869737473000000000000000000000000600082015250565b6000613ed56014836138de565b9150613ee082613e9f565b602082019050919050565b60006020820190508181036000830152613f0481613ec8565b9050919050565b7f6c61796572206e616d652063616e6e6f7420626520656d707479000000000000600082015250565b6000613f41601a836138de565b9150613f4c82613f0b565b602082019050919050565b60006020820190508181036000830152613f7081613f34565b9050919050565b600082905092915050565b60008190508160005260206000209050919050565b60006020601f8301049050919050565b600082821b905092915050565b600060088302613fe47fffffffffffffffffffffffffffffffffffffffffffffffffffffffffffffffff82613fa7565b613fee8683613fa7565b95508019841693508086168417925050509392505050565b600061402161401c6140178461308d565b6131e3565b61308d565b9050919050565b6000819050919050565b61403b83614006565b61404f61404782614028565b848454613fb4565b825550505050565b600090565b614064614057565b61406f818484614032565b505050565b5b818110156140935761408860008261405c565b600181019050614075565b5050565b601f8211156140d8576140a981613f82565b6140b284613f97565b810160208510156140c1578190505b6140d56140cd85613f97565b830182614074565b50505b505050565b600082821c905092915050565b60006140fb600019846008026140dd565b1980831691505092915050565b600061411483836140ea565b9150826002028217905092915050565b61412e8383613f77565b67ffffffffffffffff81111561414757614146613aaa565b5b6141518254613d71565b61415c828285614097565b6000601f83116001811461418b5760008415614179578287013590505b6141838582614108565b8655506141eb565b601f19841661419986613f82565b60005b828110156141c15784890135825560018201915060208501945060208101905061419c565b868310156141de57848901356141da601f8916826140ea565b8355505b6001600288020188555050505b50505050505050565b7f4e487b7100000000000000000000000000000000000000000000000000000000600052601160045260246000fd5b600061422e8261308d565b91507fffffffffffffffffffffffffffffffffffffffffffffffffffffffffffffffff82036142605761425f6141f4565b5b600182019050919050565b600061427783856138de565b9350614284838584613b56565b61428d836130ec565b840190509392505050565b600060408201905081810360008301526142b381868861426b565b905081810360208301526142c881848661426b565b905095945050505050565b6142dc826130a6565b67ffffffffffffffff8111156142f5576142f4613aaa565b5b6142ff8254613d71565b61430a828285614097565b600060209050601f83116001811461433d576000841561432b578287015190505b6143358582614108565b86555061439d565b601f19841661434b86613f82565b60005b828110156143735784890151825560018201915060208501945060208101905061434e565b86831015614390578489015161438c601f8916826140ea565b8355505b6001600288020188555050505b505050505050565b60006143b08261308d565b91506143bb8361308d565b92508282019050808211156143d3576143d26141f4565b5b92915050565b7f4c6179657220646f6573206e6f74206578697374000000000000000000000000600082015250565b600061440f6014836138de565b915061441a826143d9565b602082019050919050565b6000602082019050818103600083015261443e81614402565b9050919050565b7f456d626564206973206e6f742061206d65737361676500000000000000000000600082015250565b600061447b6016836138de565b915061448682614445565b602082019050919050565b600060208201905081810360008301526144aa8161446e565b9050919050565b7f43616c6c6572206973206e6f742074686520617574686f72206f66207468652060008201527f6d65737361676500000000000000000000000000000000000000000000000000602082015250565b600061450d6027836138de565b9150614518826144b1565b604082019050919050565b6000602082019050818103600083015261453c81614500565b9050919050565b7f4d65737361676520656d626564206e6f7420666f756e64000000000000000000600082015250565b60006145796017836138de565b915061458482614543565b602082019050919050565b600060208201905081810360008301526145a88161456c565b9050919050565b60006145ba8261308d565b91506145c58361308d565b92508282039050818111156145dd576145dc6141f4565b5b92915050565b6000815490506145f281613d71565b9050919050565b8181036146075750506146df565b614610826145e3565b67ffffffffffffffff81111561462957614628613aaa565b5b6146338254613d71565b61463e828285614097565b6000601f83116001811461466d576000841561465b578287015490505b6146658582614108565b8655506146d8565b601f19841661467b87613f82565b965061468686613f82565b60005b828110156146ae57848901548255600182019150600185019450602081019050614689565b868310156146cb57848901546146c7601f8916826140ea565b8355505b6001600288020188555050505b5050505050505b565b7f4e487b7100000000000000000000000000000000000000000000000000000000600052603160045260246000fd5b6147198161308d565b82525050565b60006020820190506147346000830184614710565b92915050565b600081519050614749816139aa565b92915050565b60006020828403121561476557614764613566565b5b60006147738482850161473a565b91505092915050565b7f43616c6c6572206973206e6f7420746865206f776e6572206f6620746865207460008201527f6f6b656e00000000000000000000000000000000000000000000000000000000602082015250565b60006147d86024836138de565b91506147e38261477c565b604082019050919050565b60006020820190508181036000830152614807816147cb565b9050919050565b600061482161481c84613b25565b613b0a565b90508281526020810184848401111561483d5761483c613aa5565b5b6148488482856130c2565b509392505050565b600082601f83011261486557614864613570565b5b815161487584826020860161480e565b91505092915050565b60006020828403121561489457614893613566565b5b600082015167ffffffffffffffff8111156148b2576148b161356b565b5b6148be84828501614850565b91505092915050565b7f45524337323120646f6573206e6f7420737570706f727420746f6b656e555249600082015250565b60006148fd6020836138de565b9150614908826148c7565b602082019050919050565b6000602082019050818103600083015261492c816148f0565b905091905056fea2646970667358221220ac9ce40f5234ad38daec40a4fcaa7ee6f7f5a15085e04c396c495b447f56404564736f6c63430008180033",
  "linkReferences": {},
  "deployedLinkReferences": {}
}